{"contracts/BreachRegistry.sol":{"BreachRegistry":{"abi":[{"inputs":[{"internalType":"address","name":"initialVerifier","type":"address"}],"stateMutability":"nonpayable","type":"constructor"},{"inputs":[{"internalType":"bytes32","name":"targetHash","type":"bytes32"},{"internalType":"bytes32","name":"sourceHash","type":"bytes32"}],"name":"DuplicateBreach","type":"error"},{"inputs":[],"name":"ECDSAInvalidSignature","type":"error"},{"inputs":[{"internalType":"uint256","name":"length","type":"uint256"}],"name":"ECDSAInvalidSignatureLength","type":"error"},{"inputs":[{"internalType":"bytes32","name":"s","type":"bytes32"}],"name":"ECDSAInvalidSignatureS","type":"error"},{"inputs":[{"internalType":"uint256","name":"expected","type":"uint256"},{"internalType":"uint256","name":"provided","type":"uint256"}],"name":"InvalidNonce","type":"error"},{"inputs":[],"name":"InvalidShortString","type":"error"},{"inputs":[{"internalType":"address","name":"signer","type":"address"}],"name":"NotAVerifier","type":"error"},{"inputs":[{"internalType":"address","name":"owner","type":"address"}],"name":"OwnableInvalidOwner","type":"error"},{"inputs":[{"internalType":"address","name":"account","type":"address"}],"name":"OwnableUnauthorizedAccount","type":"error"},{"inputs":[{"internalType":"uint256","name":"deadline","type":"uint256"}],"name":"SignatureExpired","type":"error"},{"inputs":[{"internalType":"string","name":"str","type":"string"}],"name":"StringTooLong","type":"error"},{"anonymous":false,"inputs":[{"indexed":true,"internalType":"uint256","name":"id","type":"uint256"},{"indexed":true,"internalType":"bytes32","name":"targetHash","type":"bytes32"},{"indexed":true,"internalType":"address","name":"beneficiary","type":"address"},{"indexed":false,"internalType":"string","name":"source","type":"string"},{"indexed":false,"internalType":"string","name":"dataType","type":"string"},{"indexed":false,"internalType":"address","name":"reporter","type":"address"},{"indexed":false,"internalType":"uint256","name":"nonce","type":"uint256"}],"name":"BreachRecorded","type":"event"},{"anonymous":false,"inputs":[],"name":"EIP712DomainChanged","type":"event"},{"anonymous":false,"inputs":[{"indexed":true,"internalType":"address","name":"previousOwner","type":"address"},{"indexed":true,"internalType":"address","name":"newOwner","type":"address"}],"name":"OwnershipTransferred","type":"event"},{"anonymous":false,"inputs":[{"indexed":true,"internalType":"address","name":"verifier","type":"address"},{"indexed":false,"internalType":"bool","name":"enabled","type":"bool"}],"name":"VerifierSet","type":"event"},{"inputs":[],"name":"domainSeparator","outputs":[{"internalType":"bytes32","name":"","type":"bytes32"}],"stateMutability":"view","type":"function"},{"inputs":[],"name":"eip712Domain","outputs":[{"internalType":"bytes1","name":"fields","type":"bytes1"},{"internalType":"string","name":"name","type":"string"},{"internalType":"string","name":"version","type":"string"},{"internalType":"uint256","name":"chainId","type":"uint256"},{"internalType":"address","name":"verifyingContract","type":"address"},{"internalType":"bytes32","name":"salt","type":"bytes32"},{"internalType":"uint256[]","name":"extensions","type":"uint256[]"}],"stateMutability":"view","type":"function"},{"inputs":[{"internalType":"bytes32","name":"targetHash","type":"bytes32"},{"internalType":"string","name":"source","type":"string"}],"name":"isRegistered","outputs":[{"internalType":"bool","name":"","type":"bool"}],"stateMutability":"view","type":"function"},{"inputs":[{"internalType":"address","name":"","type":"address"}],"name":"isVerifier","outputs":[{"internalType":"bool","name":"","type":"bool"}],"stateMutability":"view","type":"function"},{"inputs":[{"internalType":"address","name":"","type":"address"}],"name":"nonces","outputs":[{"internalType":"uint256","name":"","type":"uint256"}],"stateMutability":"view","type":"function"},{"inputs":[],"name":"owner","outputs":[{"internalType":"address","name":"","type":"address"}],"stateMutability":"view","type":"function"},{"inputs":[{"internalType":"bytes32","name":"targetHash","type":"bytes32"},{"internalType":"string","name":"source","type":"string"},{"internalType":"string","name":"dataType","type":"string"},{"internalType":"address","name":"beneficiary","type":"address"},{"internalType":"uint256","name":"nonce","type":"uint256"},{"internalType":"uint256","name":"deadline","type":"uint256"},{"internalType":"bytes","name":"signature","type":"bytes"}],"name":"recordBreachWithProof","outputs":[{"internalType":"uint256","name":"recordId","type":"uint256"}],"stateMutability":"nonpayable","type":"function"},{"inputs":[{"internalType":"uint256","name":"","type":"uint256"}],"name":"records","outputs":[{"internalType":"bytes32","name":"targetHash","type":"bytes32"},{"internalType":"string","name":"source","type":"string"},{"internalType":"string","name":"dataType","type":"string"},{"internalType":"address","name":"beneficiary","type":"address"},{"internalType":"address","name":"reporter","type":"address"},{"internalType":"uint256","name":"timestamp","type":"uint256"}],"stateMutability":"view","type":"function"},{"inputs":[{"internalType":"address","name":"beneficiary","type":"address"}],"name":"recordsOfBeneficiary","outputs":[{"internalType":"uint256[]","name":"","type":"uint256[]"}],"stateMutability":"view","type":"function"},{"inputs":[],"name":"renounceOwnership","outputs":[],"stateMutability":"nonpayable","type":"function"},{"inputs":[{"internalType":"address","name":"verifier","type":"address"},{"internalType":"bool","name":"enabled","type":"bool"}],"name":"setVerifier","outputs":[],"stateMutability":"nonpayable","type":"function"},{"inputs":[],"name":"totalBreaches","outputs":[{"internalType":"uint256","name":"","type":"uint256"}],"stateMutability":"view","type":"function"},{"inputs":[{"internalType":"address","name":"newOwner","type":"address"}],"name":"transferOwnership","outputs":[],"stateMutability":"nonpayable","type":"function"}],"evm":{"bytecode":{"linkReferences":{},"object":"610160346200025e576001600160401b0390601f6200198b38819003918201601f1916830191848311848410176200024857808492604094855283396020938491810103126200025e57516001600160a01b039190828116908190036200025e578151926200006e8462000263565b60198452848401947f436861696e57617463682e4272656163685265676973747279000000000000008652835196620000a78862000263565b60018852818801603160f81b8152620000c0876200027f565b97610120988952620000d28a62000452565b97610140988952519020988960e05251902061010098818a524660a052865191848301917f8b73c3c69bb8fe3d512ecc4cf759cc79239f7b179b0ffacaa9a75d522b39400f83528884015260608301524660808301523060a083015260a0825260c0820192828410908411176200024857828752815190206080523060c05233156200023157505060028054336001600160a01b031982168117909255855193167f8be0079c531659141344cd1fd0a4f28419497f9722a3daafe3b4186f6b6457e0600080a382620001ea575b505050519161138b938462000600853960805184610f4e015260a05184611019015260c05184610f18015260e05184610f9d01525183610fc3015251826109b1015251816109da0152f35b7f7a6dd775b9b6aa6ebde6f0c51172ef328eb9658e095364751705f28234e7257c91836000526004825284600020600160ff1982541617905560018152a23880806200019f565b631e4fbdf760e01b8252600060c490910152602490fd5b634e487b7160e01b600052604160045260246000fd5b600080fd5b604081019081106001600160401b038211176200024857604052565b805160209190828110156200031e575090601f825111620002bd5780825192015190808310620002ae57501790565b82600019910360031b1b161790565b90604051809263305a27a960e01b82528060048301528251908160248401526000935b82851062000304575050604492506000838284010152601f80199101168101030190fd5b8481018201518686016044015293810193859350620002e0565b6001600160401b03811162000248576000928354926001938481811c9116801562000447575b838210146200043357601f8111620003fd575b5081601f841160011462000396575092829391839286946200038a575b50501b916000199060031b1c191617905560ff90565b01519250388062000374565b919083601f1981168780528488209488905b88838310620003e25750505010620003c8575b505050811b01905560ff90565b015160001960f88460031b161c19169055388080620003bb565b858701518855909601959485019487935090810190620003a8565b85805284601f848820920160051c820191601f860160051c015b8281106200042757505062000357565b87815501859062000417565b634e487b7160e01b86526022600452602486fd5b90607f169062000344565b805160209081811015620004e05750601f8251116200047f5780825192015190808310620002ae57501790565b90604051809263305a27a960e01b82528060048301528251908160248401526000935b828510620004c6575050604492506000838284010152601f80199101168101030190fd5b8481018201518686016044015293810193859350620004a2565b9192916001600160401b038111620002485760019182548381811c91168015620005f4575b82821014620005de57601f8111620005a5575b5080601f8311600114620005585750819293946000926200054c575b5050600019600383901b1c191690821b17905560ff90565b01519050388062000534565b90601f198316958460005282600020926000905b8882106200058d5750508385969710620003c857505050811b01905560ff90565b8087859682949686015181550195019301906200056c565b8360005283601f83600020920160051c820191601f850160051c015b828110620005d157505062000518565b60008155018490620005c1565b634e487b7160e01b600052602260045260246000fd5b90607f16906200050556fe608080604052600436101561001357600080fd5b60003560e01c9081633310521814610c3a575080633446106714610b9a5780634a7a9c7d14610b2e5780635e12366414610b10578063715018a614610ab35780637ecebe0014610a7957806384b0196e1461099b5780638a733f5b1461090c5780638da5cb5b146108e3578063ac9b567114610864578063f2b669c114610164578063f2fde38b146100d65763f698da25146100ae57600080fd5b346100d15760003660031901126100d15760206100c9610f15565b604051908152f35b600080fd5b346100d15760203660031901126100d1576100ef610c75565b6100f7610ee9565b6001600160a01b0390811690811561014b57600254826bffffffffffffffffffffffff60a01b821617600255167f8be0079c531659141344cd1fd0a4f28419497f9722a3daafe3b4186f6b6457e0600080a3005b604051631e4fbdf760e01b815260006004820152602490fd5b346100d15760e03660031901126100d1576024356001600160401b0381116100d157610194903690600401610e21565b6044356001600160401b0381116100d1576101b3903690600401610e21565b9091606435916001600160a01b03831683036100d15760c4356001600160401b0381116100d1576101e8903690600401610e21565b949060a435421161084a576101fe368589610e82565b6020815191012095610211368585610e82565b60208151910120604051977fc855fe440ac82ec490a3f4a048cef0804a56f501ebe789009e78398f65dc37fb60208a015260043560408a01526060890152608088015260018060a01b03861660a088015260843560c088015260a43560e088015260e08752866101008101106001600160401b0361010089011117610610576102d46102da926042896101006102e39b01604052602081519101206102b4610f15565b906040519161190160f01b83526002830152602282015220923691610e82565b90611204565b90969196611240565b6001600160a01b03851660009081526004602052604090205460ff1615610829576001600160a01b03851660009081526005602052604090205460843581036108095750610332368488610e82565b602081519101209460043560005260066020526040600020866000526020526040600020546107e95760018060a01b031660005260056020526001608435016040600020556040518060c08101106001600160401b0360c0830111176106105760c0810160405260043581526103a9368589610e82565b90602081019182526103bc368585610e82565b60408201526001600160a01b03861660608201523360808201524260a0820152600354600160401b811015610610578060016103fb9201600355610c8b565b9290926107d35781518355518051906001600160401b0382116106105781906104276001860154610cc6565b601f8111610780575b50602090601f831160011461070e57600092610703575b50508160011b916000199060031b1c19161760018301555b60408101518051906001600160401b038211610610576104826002850154610cc6565b601f81116106bc575b50602090601f83116001146106475791806005949260a09460009261063c575b50508160011b916000199060031b1c19161760028501555b60038401600180841b03606083015116906bffffffffffffffffffffffff841b91828254161790556004850190600180851b0360808401511690825416179055015191015560035494856000198101116106265760043560005260066020526040600020906000526020528460406000205560018060a01b0384166000526007602052604060002091825492600160401b84101561061057600184018082558410156105fa576020976105a294610595926000526000198901908a600020015560405195608087526080870191610ec8565b9184830388860152610ec8565b33604083015260843560608301526001600160a01b0390921691600435916000198501917f9c7afafa2f6e5ec5f61a7811d4d91c60c657187f1f16b21cada4373bc7f13dc5919081900390a460405190600019018152f35b634e487b7160e01b600052603260045260246000fd5b634e487b7160e01b600052604160045260246000fd5b634e487b7160e01b600052601160045260246000fd5b015190508c806104ab565b906002850160005260206000209160005b601f19851681106106a45750926005949260019260a09583601f1981161061068b575b505050811b0160028501556104c3565b015160001960f88460031b161c191690558c808061067b565b91926020600181928685015181550194019201610658565b600285016000526020600020601f840160051c8101602085106106fc575b601f830160051c820181106106f057505061048b565b600081556001016106da565b50806106da565b015190508a80610447565b9250600185016000526020600020906000935b601f1984168510610765576001945083601f1981161061074c575b505050811b01600183015561045f565b015160001960f88460031b161c191690558a808061073c565b81810151835560209485019460019093019290910190610721565b909150600185016000526020600020601f840160051c8101602085106107cc575b90849392915b601f830160051c820181106107bd575050610430565b600081558594506001016107a7565b50806107a1565b634e487b7160e01b600052600060045260246000fd5b60448660405190633ea9e2e160e21b825260043560048301526024820152fd5b604490604051906306427aeb60e01b825260048201526084356024820152fd5b604051631606811f60e21b81526001600160a01b0386166004820152602490fd5b60405163cd21db4f60e01b815260a4356004820152602490fd5b346100d15760403660031901126100d15761087d610c75565b602435908115158092036100d15760207f7a6dd775b9b6aa6ebde6f0c51172ef328eb9658e095364751705f28234e7257c916108b7610ee9565b60018060a01b0316928360005260048252604060002060ff1981541660ff8316179055604051908152a2005b346100d15760003660031901126100d1576002546040516001600160a01b039091168152602090f35b346100d1576020806003193601126100d1576001600160a01b0361092e610c75565b1660005260078152604060002090604051808383829554938481520190600052836000209260005b858282106109855750505061096d92500383610d1b565b610981604051928284938452830190610e4e565b0390f35b8554845260019586019588955093019201610956565b346100d15760003660031901126100d1576109d57f000000000000000000000000000000000000000000000000000000000000000061103f565b6109fe7f0000000000000000000000000000000000000000000000000000000000000000611143565b906040519160208301928084106001600160401b0385111761061057610a5861098192610a4a9560405260008352604051958695600f60f81b875260e0602088015260e0870190610de1565b908582036040870152610de1565b90466060850152306080850152600060a085015283820360c0850152610e4e565b346100d15760203660031901126100d1576001600160a01b03610a9a610c75565b1660005260056020526020604060002054604051908152f35b346100d15760003660031901126100d157610acc610ee9565b600280546001600160a01b031981169091556000906001600160a01b03167f8be0079c531659141344cd1fd0a4f28419497f9722a3daafe3b4186f6b6457e08280a3005b346100d15760003660031901126100d1576020600354604051908152f35b346100d15760403660031901126100d1576024356001600160401b0381116100d157610b61610b7b913690600401610e21565b919060043560005260066020526040600020923691610e82565b6020815191012060005260205260206040600020541515604051908152f35b346100d15760203660031901126100d1576004356003548110156100d157610bc190610c8b565b508054610bd060018301610d3c565b91610bdd60028201610d3c565b60018060a01b0391610c266005846003840154169460048401541692015492610c18604051978897885260c0602089015260c0880190610de1565b908682036040880152610de1565b926060850152608084015260a08301520390f35b346100d15760203660031901126100d1576020906001600160a01b03610c5e610c75565b166000526004825260ff6040600020541615158152f35b600435906001600160a01b03821682036100d157565b6003548110156105fa576006906003600052027fc2575a0e9e593c00f959f8c92f12db2869c3395a3b0502d05e2516446f71f85b0190600090565b90600182811c92168015610cf6575b6020831014610ce057565b634e487b7160e01b600052602260045260246000fd5b91607f1691610cd5565b604081019081106001600160401b0382111761061057604052565b90601f801991011681019081106001600160401b0382111761061057604052565b90604051918260008254610d4f81610cc6565b90818452602094600191600181169081600014610dbf5750600114610d80575b505050610d7e92500383610d1b565b565b600090815285812095935091905b818310610da7575050610d7e9350820101388080610d6f565b85548884018501529485019487945091830191610d8e565b92505050610d7e94925060ff191682840152151560051b820101388080610d6f565b919082519283825260005b848110610e0d575050826000602080949584010152601f8019910116010190565b602081830181015184830182015201610dec565b9181601f840112156100d1578235916001600160401b0383116100d157602083818601950101116100d157565b90815180825260208080930193019160005b828110610e6e575050505090565b835185529381019392810192600101610e60565b9291926001600160401b0382116106105760405191610eab601f8201601f191660200184610d1b565b8294818452818301116100d1578281602093846000960137010152565b908060209392818452848401376000828201840152601f01601f1916010190565b6002546001600160a01b03163303610efd57565b60405163118cdaa760e01b8152336004820152602490fd5b307f00000000000000000000000000000000000000000000000000000000000000006001600160a01b03161480611016575b15610f70577f000000000000000000000000000000000000000000000000000000000000000090565b60405160208101907f8b73c3c69bb8fe3d512ecc4cf759cc79239f7b179b0ffacaa9a75d522b39400f82527f000000000000000000000000000000000000000000000000000000000000000060408201527f000000000000000000000000000000000000000000000000000000000000000060608201524660808201523060a082015260a0815260c081018181106001600160401b038211176106105760405251902090565b507f00000000000000000000000000000000000000000000000000000000000000004614610f47565b60ff811461107d5760ff811690601f821161106b576040519161106183610d00565b8252602082015290565b604051632cd44ac360e21b8152600490fd5b506040516000816000549161109183610cc6565b8083529260209060019081811690811561111f57506001146110bf575b50506110bc92500382610d1b565b90565b915092600080527f290decd9548b62a8d60345a988386fc84ba6bc95484008f6362f93160ef3e563936000925b82841061110757506110bc94505050810160200138806110ae565b855487850183015294850194869450928101926110ec565b915050602092506110bc94915060ff191682840152151560051b82010138806110ae565b60ff81146111655760ff811690601f821161106b576040519161106183610d00565b5060405160008160019160015461117b81610cc6565b808452936020916001811690811561111f57506001146111a35750506110bc92500382610d1b565b91509260016000527fb10e2d527612073b26eecdfd717e6a320cf44b4afac2b0732d9fcbe2b7fa0cf6936000925b8284106111ec57506110bc94505050810160200138806110ae565b855487850183015294850194869450928101926111d1565b81519190604183036112355761122e92506020820151906060604084015193015160001a906112c5565b9192909190565b505060009160029190565b60048110156112af5780611252575050565b6001810361126c5760405163f645eedf60e01b8152600490fd5b6002810361128d5760405163fce698f760e01b815260048101839052602490fd5b6003146112975750565b602490604051906335e2f38360e21b82526004820152fd5b634e487b7160e01b600052602160045260246000fd5b91907f7fffffffffffffffffffffffffffffff5d576e7357a4501ddfe92f46681b20a0841161134957926020929160ff608095604051948552168484015260408301526060820152600092839182805260015afa1561133d5780516001600160a01b0381161561133457918190565b50809160019190565b604051903d90823e3d90fd5b5050506000916003919056fea2646970667358221220e29ed60f1c45e76d8c3c90aecdfc4423f4d8ab24d85d1338b5dec8defd0f1c3d64736f6c63430008180033","opcodes":"PUSH2 0x160 CALLVALUE PUSH3 0x25E JUMPI PUSH1 0x1 PUSH1 0x1 PUSH1 0x40 SHL SUB SWAP1 PUSH1 0x1F PUSH3 0x198B CODESIZE DUP2 SWAP1 SUB SWAP2 DUP3 ADD PUSH1 0x1F NOT AND DUP4 ADD SWAP2 DUP5 DUP4 GT DUP5 DUP5 LT OR PUSH3 0x248 JUMPI DUP1 DUP5 SWAP3 PUSH1 0x40 SWAP5 DUP6 MSTORE DUP4 CODECOPY PUSH1 0x20 SWAP4 DUP5 SWAP2 DUP2 ADD SUB SLT PUSH3 0x25E JUMPI MLOAD PUSH1 0x1 PUSH1 0x1 PUSH1 0xA0 SHL SUB SWAP2 SWAP1 DUP3 DUP2 AND SWAP1 DUP2 SWAP1 SUB PUSH3 0x25E JUMPI DUP2 MLOAD SWAP3 PUSH3 0x6E DUP5 PUSH3 0x263 JUMP JUMPDEST PUSH1 0x19 DUP5 MSTORE DUP5 DUP5 ADD SWAP5 PUSH32 0x436861696E57617463682E427265616368526567697374727900000000000000 DUP7 MSTORE DUP4 MLOAD SWAP7 PUSH3 0xA7 DUP9 PUSH3 0x263 JUMP JUMPDEST PUSH1 0x1 DUP9 MSTORE DUP2 DUP9 ADD PUSH1 0x31 PUSH1 0xF8 SHL DUP2 MSTORE PUSH3 0xC0 DUP8 PUSH3 0x27F JUMP JUMPDEST SWAP8 PUSH2 0x120 SWAP9 DUP10 MSTORE PUSH3 0xD2 DUP11 PUSH3 0x452 JUMP JUMPDEST SWAP8 PUSH2 0x140 SWAP9 DUP10 MSTORE MLOAD SWAP1 KECCAK256 SWAP9 DUP10 PUSH1 0xE0 MSTORE MLOAD SWAP1 KECCAK256 PUSH2 0x100 SWAP9 DUP2 DUP11 MSTORE CHAINID PUSH1 0xA0 MSTORE DUP7 MLOAD SWAP2 DUP5 DUP4 ADD SWAP2 PUSH32 0x8B73C3C69BB8FE3D512ECC4CF759CC79239F7B179B0FFACAA9A75D522B39400F DUP4 MSTORE DUP9 DUP5 ADD MSTORE PUSH1 0x60 DUP4 ADD MSTORE CHAINID PUSH1 0x80 DUP4 ADD MSTORE ADDRESS PUSH1 0xA0 DUP4 ADD MSTORE PUSH1 0xA0 DUP3 MSTORE PUSH1 0xC0 DUP3 ADD SWAP3 DUP3 DUP5 LT SWAP1 DUP5 GT OR PUSH3 0x248 JUMPI DUP3 DUP8 MSTORE DUP2 MLOAD SWAP1 KECCAK256 PUSH1 0x80 MSTORE ADDRESS PUSH1 0xC0 MSTORE CALLER ISZERO PUSH3 0x231 JUMPI POP POP PUSH1 0x2 DUP1 SLOAD CALLER PUSH1 0x1 PUSH1 0x1 PUSH1 0xA0 SHL SUB NOT DUP3 AND DUP2 OR SWAP1 SWAP3 SSTORE DUP6 MLOAD SWAP4 AND PUSH32 0x8BE0079C531659141344CD1FD0A4F28419497F9722A3DAAFE3B4186F6B6457E0 PUSH1 0x0 DUP1 LOG3 DUP3 PUSH3 0x1EA JUMPI JUMPDEST POP POP POP MLOAD SWAP2 PUSH2 0x138B SWAP4 DUP5 PUSH3 0x600 DUP6 CODECOPY PUSH1 0x80 MLOAD DUP5 PUSH2 0xF4E ADD MSTORE PUSH1 0xA0 MLOAD DUP5 PUSH2 0x1019 ADD MSTORE PUSH1 0xC0 MLOAD DUP5 PUSH2 0xF18 ADD MSTORE PUSH1 0xE0 MLOAD DUP5 PUSH2 0xF9D ADD MSTORE MLOAD DUP4 PUSH2 0xFC3 ADD MSTORE MLOAD DUP3 PUSH2 0x9B1 ADD MSTORE MLOAD DUP2 PUSH2 0x9DA ADD MSTORE RETURN JUMPDEST PUSH32 0x7A6DD775B9B6AA6EBDE6F0C51172EF328EB9658E095364751705F28234E7257C SWAP2 DUP4 PUSH1 0x0 MSTORE PUSH1 0x4 DUP3 MSTORE DUP5 PUSH1 0x0 KECCAK256 PUSH1 0x1 PUSH1 0xFF NOT DUP3 SLOAD AND OR SWAP1 SSTORE PUSH1 0x1 DUP2 MSTORE LOG2 CODESIZE DUP1 DUP1 PUSH3 0x19F JUMP JUMPDEST PUSH4 0x1E4FBDF7 PUSH1 0xE0 SHL DUP3 MSTORE PUSH1 0x0 PUSH1 0xC4 SWAP1 SWAP2 ADD MSTORE PUSH1 0x24 SWAP1 REVERT JUMPDEST PUSH4 0x4E487B71 PUSH1 0xE0 SHL PUSH1 0x0 MSTORE PUSH1 0x41 PUSH1 0x4 MSTORE PUSH1 0x24 PUSH1 0x0 REVERT JUMPDEST PUSH1 0x0 DUP1 REVERT JUMPDEST PUSH1 0x40 DUP2 ADD SWAP1 DUP2 LT PUSH1 0x1 PUSH1 0x1 PUSH1 0x40 SHL SUB DUP3 GT OR PUSH3 0x248 JUMPI PUSH1 0x40 MSTORE JUMP JUMPDEST DUP1 MLOAD PUSH1 0x20 SWAP2 SWAP1 DUP3 DUP2 LT ISZERO PUSH3 0x31E JUMPI POP SWAP1 PUSH1 0x1F DUP3 MLOAD GT PUSH3 0x2BD JUMPI DUP1 DUP3 MLOAD SWAP3 ADD MLOAD SWAP1 DUP1 DUP4 LT PUSH3 0x2AE JUMPI POP OR SWAP1 JUMP JUMPDEST DUP3 PUSH1 0x0 NOT SWAP2 SUB PUSH1 0x3 SHL SHL AND OR SWAP1 JUMP JUMPDEST SWAP1 PUSH1 0x40 MLOAD DUP1 SWAP3 PUSH4 0x305A27A9 PUSH1 0xE0 SHL DUP3 MSTORE DUP1 PUSH1 0x4 DUP4 ADD MSTORE DUP3 MLOAD SWAP1 DUP2 PUSH1 0x24 DUP5 ADD MSTORE PUSH1 0x0 SWAP4 JUMPDEST DUP3 DUP6 LT PUSH3 0x304 JUMPI POP POP PUSH1 0x44 SWAP3 POP PUSH1 0x0 DUP4 DUP3 DUP5 ADD ADD MSTORE PUSH1 0x1F DUP1 NOT SWAP2 ADD AND DUP2 ADD SUB ADD SWAP1 REVERT JUMPDEST DUP5 DUP2 ADD DUP3 ADD MLOAD DUP7 DUP7 ADD PUSH1 0x44 ADD MSTORE SWAP4 DUP2 ADD SWAP4 DUP6 SWAP4 POP PUSH3 0x2E0 JUMP JUMPDEST PUSH1 0x1 PUSH1 0x1 PUSH1 0x40 SHL SUB DUP2 GT PUSH3 0x248 JUMPI PUSH1 0x0 SWAP3 DUP4 SLOAD SWAP3 PUSH1 0x1 SWAP4 DUP5 DUP2 DUP2 SHR SWAP2 AND DUP1 ISZERO PUSH3 0x447 JUMPI JUMPDEST DUP4 DUP3 LT EQ PUSH3 0x433 JUMPI PUSH1 0x1F DUP2 GT PUSH3 0x3FD JUMPI JUMPDEST POP DUP2 PUSH1 0x1F DUP5 GT PUSH1 0x1 EQ PUSH3 0x396 JUMPI POP SWAP3 DUP3 SWAP4 SWAP2 DUP4 SWAP3 DUP7 SWAP5 PUSH3 0x38A JUMPI JUMPDEST POP POP SHL SWAP2 PUSH1 0x0 NOT SWAP1 PUSH1 0x3 SHL SHR NOT AND OR SWAP1 SSTORE PUSH1 0xFF SWAP1 JUMP JUMPDEST ADD MLOAD SWAP3 POP CODESIZE DUP1 PUSH3 0x374 JUMP JUMPDEST SWAP2 SWAP1 DUP4 PUSH1 0x1F NOT DUP2 AND DUP8 DUP1 MSTORE DUP5 DUP9 KECCAK256 SWAP5 DUP9 SWAP1 JUMPDEST DUP9 DUP4 DUP4 LT PUSH3 0x3E2 JUMPI POP POP POP LT PUSH3 0x3C8 JUMPI JUMPDEST POP POP POP DUP2 SHL ADD SWAP1 SSTORE PUSH1 0xFF SWAP1 JUMP JUMPDEST ADD MLOAD PUSH1 0x0 NOT PUSH1 0xF8 DUP5 PUSH1 0x3 SHL AND SHR NOT AND SWAP1 SSTORE CODESIZE DUP1 DUP1 PUSH3 0x3BB JUMP JUMPDEST DUP6 DUP8 ADD MLOAD DUP9 SSTORE SWAP1 SWAP7 ADD SWAP6 SWAP5 DUP6 ADD SWAP5 DUP8 SWAP4 POP SWAP1 DUP2 ADD SWAP1 PUSH3 0x3A8 JUMP JUMPDEST DUP6 DUP1 MSTORE DUP5 PUSH1 0x1F DUP5 DUP9 KECCAK256 SWAP3 ADD PUSH1 0x5 SHR DUP3 ADD SWAP2 PUSH1 0x1F DUP7 ADD PUSH1 0x5 SHR ADD JUMPDEST DUP3 DUP2 LT PUSH3 0x427 JUMPI POP POP PUSH3 0x357 JUMP JUMPDEST DUP8 DUP2 SSTORE ADD DUP6 SWAP1 PUSH3 0x417 JUMP JUMPDEST PUSH4 0x4E487B71 PUSH1 0xE0 SHL DUP7 MSTORE PUSH1 0x22 PUSH1 0x4 MSTORE PUSH1 0x24 DUP7 REVERT JUMPDEST SWAP1 PUSH1 0x7F AND SWAP1 PUSH3 0x344 JUMP JUMPDEST DUP1 MLOAD PUSH1 0x20 SWAP1 DUP2 DUP2 LT ISZERO PUSH3 0x4E0 JUMPI POP PUSH1 0x1F DUP3 MLOAD GT PUSH3 0x47F JUMPI DUP1 DUP3 MLOAD SWAP3 ADD MLOAD SWAP1 DUP1 DUP4 LT PUSH3 0x2AE JUMPI POP OR SWAP1 JUMP JUMPDEST SWAP1 PUSH1 0x40 MLOAD DUP1 SWAP3 PUSH4 0x305A27A9 PUSH1 0xE0 SHL DUP3 MSTORE DUP1 PUSH1 0x4 DUP4 ADD MSTORE DUP3 MLOAD SWAP1 DUP2 PUSH1 0x24 DUP5 ADD MSTORE PUSH1 0x0 SWAP4 JUMPDEST DUP3 DUP6 LT PUSH3 0x4C6 JUMPI POP POP PUSH1 0x44 SWAP3 POP PUSH1 0x0 DUP4 DUP3 DUP5 ADD ADD MSTORE PUSH1 0x1F DUP1 NOT SWAP2 ADD AND DUP2 ADD SUB ADD SWAP1 REVERT JUMPDEST DUP5 DUP2 ADD DUP3 ADD MLOAD DUP7 DUP7 ADD PUSH1 0x44 ADD MSTORE SWAP4 DUP2 ADD SWAP4 DUP6 SWAP4 POP PUSH3 0x4A2 JUMP JUMPDEST SWAP2 SWAP3 SWAP2 PUSH1 0x1 PUSH1 0x1 PUSH1 0x40 SHL SUB DUP2 GT PUSH3 0x248 JUMPI PUSH1 0x1 SWAP2 DUP3 SLOAD DUP4 DUP2 DUP2 SHR SWAP2 AND DUP1 ISZERO PUSH3 0x5F4 JUMPI JUMPDEST DUP3 DUP3 LT EQ PUSH3 0x5DE JUMPI PUSH1 0x1F DUP2 GT PUSH3 0x5A5 JUMPI JUMPDEST POP DUP1 PUSH1 0x1F DUP4 GT PUSH1 0x1 EQ PUSH3 0x558 JUMPI POP DUP2 SWAP3 SWAP4 SWAP5 PUSH1 0x0 SWAP3 PUSH3 0x54C JUMPI JUMPDEST POP POP PUSH1 0x0 NOT PUSH1 0x3 DUP4 SWAP1 SHL SHR NOT AND SWAP1 DUP3 SHL OR SWAP1 SSTORE PUSH1 0xFF SWAP1 JUMP JUMPDEST ADD MLOAD SWAP1 POP CODESIZE DUP1 PUSH3 0x534 JUMP JUMPDEST SWAP1 PUSH1 0x1F NOT DUP4 AND SWAP6 DUP5 PUSH1 0x0 MSTORE DUP3 PUSH1 0x0 KECCAK256 SWAP3 PUSH1 0x0 SWAP1 JUMPDEST DUP9 DUP3 LT PUSH3 0x58D JUMPI POP POP DUP4 DUP6 SWAP7 SWAP8 LT PUSH3 0x3C8 JUMPI POP POP POP DUP2 SHL ADD SWAP1 SSTORE PUSH1 0xFF SWAP1 JUMP JUMPDEST DUP1 DUP8 DUP6 SWAP7 DUP3 SWAP5 SWAP7 DUP7 ADD MLOAD DUP2 SSTORE ADD SWAP6 ADD SWAP4 ADD SWAP1 PUSH3 0x56C JUMP JUMPDEST DUP4 PUSH1 0x0 MSTORE DUP4 PUSH1 0x1F DUP4 PUSH1 0x0 KECCAK256 SWAP3 ADD PUSH1 0x5 SHR DUP3 ADD SWAP2 PUSH1 0x1F DUP6 ADD PUSH1 0x5 SHR ADD JUMPDEST DUP3 DUP2 LT PUSH3 0x5D1 JUMPI POP POP PUSH3 0x518 JUMP JUMPDEST PUSH1 0x0 DUP2 SSTORE ADD DUP5 SWAP1 PUSH3 0x5C1 JUMP JUMPDEST PUSH4 0x4E487B71 PUSH1 0xE0 SHL PUSH1 0x0 MSTORE PUSH1 0x22 PUSH1 0x4 MSTORE PUSH1 0x24 PUSH1 0x0 REVERT JUMPDEST SWAP1 PUSH1 0x7F AND SWAP1 PUSH3 0x505 JUMP INVALID PUSH1 0x80 DUP1 PUSH1 0x40 MSTORE PUSH1 0x4 CALLDATASIZE LT ISZERO PUSH2 0x13 JUMPI PUSH1 0x0 DUP1 REVERT JUMPDEST PUSH1 0x0 CALLDATALOAD PUSH1 0xE0 SHR SWAP1 DUP2 PUSH4 0x33105218 EQ PUSH2 0xC3A JUMPI POP DUP1 PUSH4 0x34461067 EQ PUSH2 0xB9A JUMPI DUP1 PUSH4 0x4A7A9C7D EQ PUSH2 0xB2E JUMPI DUP1 PUSH4 0x5E123664 EQ PUSH2 0xB10 JUMPI DUP1 PUSH4 0x715018A6 EQ PUSH2 0xAB3 JUMPI DUP1 PUSH4 0x7ECEBE00 EQ PUSH2 0xA79 JUMPI DUP1 PUSH4 0x84B0196E EQ PUSH2 0x99B JUMPI DUP1 PUSH4 0x8A733F5B EQ PUSH2 0x90C JUMPI DUP1 PUSH4 0x8DA5CB5B EQ PUSH2 0x8E3 JUMPI DUP1 PUSH4 0xAC9B5671 EQ PUSH2 0x864 JUMPI DUP1 PUSH4 0xF2B669C1 EQ PUSH2 0x164 JUMPI DUP1 PUSH4 0xF2FDE38B EQ PUSH2 0xD6 JUMPI PUSH4 0xF698DA25 EQ PUSH2 0xAE JUMPI PUSH1 0x0 DUP1 REVERT JUMPDEST CALLVALUE PUSH2 0xD1 JUMPI PUSH1 0x0 CALLDATASIZE PUSH1 0x3 NOT ADD SLT PUSH2 0xD1 JUMPI PUSH1 0x20 PUSH2 0xC9 PUSH2 0xF15 JUMP JUMPDEST PUSH1 0x40 MLOAD SWAP1 DUP2 MSTORE RETURN JUMPDEST PUSH1 0x0 DUP1 REVERT JUMPDEST CALLVALUE PUSH2 0xD1 JUMPI PUSH1 0x20 CALLDATASIZE PUSH1 0x3 NOT ADD SLT PUSH2 0xD1 JUMPI PUSH2 0xEF PUSH2 0xC75 JUMP JUMPDEST PUSH2 0xF7 PUSH2 0xEE9 JUMP JUMPDEST PUSH1 0x1 PUSH1 0x1 PUSH1 0xA0 SHL SUB SWAP1 DUP2 AND SWAP1 DUP2 ISZERO PUSH2 0x14B JUMPI PUSH1 0x2 SLOAD DUP3 PUSH12 0xFFFFFFFFFFFFFFFFFFFFFFFF PUSH1 0xA0 SHL DUP3 AND OR PUSH1 0x2 SSTORE AND PUSH32 0x8BE0079C531659141344CD1FD0A4F28419497F9722A3DAAFE3B4186F6B6457E0 PUSH1 0x0 DUP1 LOG3 STOP JUMPDEST PUSH1 0x40 MLOAD PUSH4 0x1E4FBDF7 PUSH1 0xE0 SHL DUP2 MSTORE PUSH1 0x0 PUSH1 0x4 DUP3 ADD MSTORE PUSH1 0x24 SWAP1 REVERT JUMPDEST CALLVALUE PUSH2 0xD1 JUMPI PUSH1 0xE0 CALLDATASIZE PUSH1 0x3 NOT ADD SLT PUSH2 0xD1 JUMPI PUSH1 0x24 CALLDATALOAD PUSH1 0x1 PUSH1 0x1 PUSH1 0x40 SHL SUB DUP2 GT PUSH2 0xD1 JUMPI PUSH2 0x194 SWAP1 CALLDATASIZE SWAP1 PUSH1 0x4 ADD PUSH2 0xE21 JUMP JUMPDEST PUSH1 0x44 CALLDATALOAD PUSH1 0x1 PUSH1 0x1 PUSH1 0x40 SHL SUB DUP2 GT PUSH2 0xD1 JUMPI PUSH2 0x1B3 SWAP1 CALLDATASIZE SWAP1 PUSH1 0x4 ADD PUSH2 0xE21 JUMP JUMPDEST SWAP1 SWAP2 PUSH1 0x64 CALLDATALOAD SWAP2 PUSH1 0x1 PUSH1 0x1 PUSH1 0xA0 SHL SUB DUP4 AND DUP4 SUB PUSH2 0xD1 JUMPI PUSH1 0xC4 CALLDATALOAD PUSH1 0x1 PUSH1 0x1 PUSH1 0x40 SHL SUB DUP2 GT PUSH2 0xD1 JUMPI PUSH2 0x1E8 SWAP1 CALLDATASIZE SWAP1 PUSH1 0x4 ADD PUSH2 0xE21 JUMP JUMPDEST SWAP5 SWAP1 PUSH1 0xA4 CALLDATALOAD TIMESTAMP GT PUSH2 0x84A JUMPI PUSH2 0x1FE CALLDATASIZE DUP6 DUP10 PUSH2 0xE82 JUMP JUMPDEST PUSH1 0x20 DUP2 MLOAD SWAP2 ADD KECCAK256 SWAP6 PUSH2 0x211 CALLDATASIZE DUP6 DUP6 PUSH2 0xE82 JUMP JUMPDEST PUSH1 0x20 DUP2 MLOAD SWAP2 ADD KECCAK256 PUSH1 0x40 MLOAD SWAP8 PUSH32 0xC855FE440AC82EC490A3F4A048CEF0804A56F501EBE789009E78398F65DC37FB PUSH1 0x20 DUP11 ADD MSTORE PUSH1 0x4 CALLDATALOAD PUSH1 0x40 DUP11 ADD MSTORE PUSH1 0x60 DUP10 ADD MSTORE PUSH1 0x80 DUP9 ADD MSTORE PUSH1 0x1 DUP1 PUSH1 0xA0 SHL SUB DUP7 AND PUSH1 0xA0 DUP9 ADD MSTORE PUSH1 0x84 CALLDATALOAD PUSH1 0xC0 DUP9 ADD MSTORE PUSH1 0xA4 CALLDATALOAD PUSH1 0xE0 DUP9 ADD MSTORE PUSH1 0xE0 DUP8 MSTORE DUP7 PUSH2 0x100 DUP2 ADD LT PUSH1 0x1 PUSH1 0x1 PUSH1 0x40 SHL SUB PUSH2 0x100 DUP10 ADD GT OR PUSH2 0x610 JUMPI PUSH2 0x2D4 PUSH2 0x2DA SWAP3 PUSH1 0x42 DUP10 PUSH2 0x100 PUSH2 0x2E3 SWAP12 ADD PUSH1 0x40 MSTORE PUSH1 0x20 DUP2 MLOAD SWAP2 ADD KECCAK256 PUSH2 0x2B4 PUSH2 0xF15 JUMP JUMPDEST SWAP1 PUSH1 0x40 MLOAD SWAP2 PUSH2 0x1901 PUSH1 0xF0 SHL DUP4 MSTORE PUSH1 0x2 DUP4 ADD MSTORE PUSH1 0x22 DUP3 ADD MSTORE KECCAK256 SWAP3 CALLDATASIZE SWAP2 PUSH2 0xE82 JUMP JUMPDEST SWAP1 PUSH2 0x1204 JUMP JUMPDEST SWAP1 SWAP7 SWAP2 SWAP7 PUSH2 0x1240 JUMP JUMPDEST PUSH1 0x1 PUSH1 0x1 PUSH1 0xA0 SHL SUB DUP6 AND PUSH1 0x0 SWAP1 DUP2 MSTORE PUSH1 0x4 PUSH1 0x20 MSTORE PUSH1 0x40 SWAP1 KECCAK256 SLOAD PUSH1 0xFF AND ISZERO PUSH2 0x829 JUMPI PUSH1 0x1 PUSH1 0x1 PUSH1 0xA0 SHL SUB DUP6 AND PUSH1 0x0 SWAP1 DUP2 MSTORE PUSH1 0x5 PUSH1 0x20 MSTORE PUSH1 0x40 SWAP1 KECCAK256 SLOAD PUSH1 0x84 CALLDATALOAD DUP2 SUB PUSH2 0x809 JUMPI POP PUSH2 0x332 CALLDATASIZE DUP5 DUP9 PUSH2 0xE82 JUMP JUMPDEST PUSH1 0x20 DUP2 MLOAD SWAP2 ADD KECCAK256 SWAP5 PUSH1 0x4 CALLDATALOAD PUSH1 0x0 MSTORE PUSH1 0x6 PUSH1 0x20 MSTORE PUSH1 0x40 PUSH1 0x0 KECCAK256 DUP7 PUSH1 0x0 MSTORE PUSH1 0x20 MSTORE PUSH1 0x40 PUSH1 0x0 KECCAK256 SLOAD PUSH2 0x7E9 JUMPI PUSH1 0x1 DUP1 PUSH1 0xA0 SHL SUB AND PUSH1 0x0 MSTORE PUSH1 0x5 PUSH1 0x20 MSTORE PUSH1 0x1 PUSH1 0x84 CALLDATALOAD ADD PUSH1 0x40 PUSH1 0x0 KECCAK256 SSTORE PUSH1 0x40 MLOAD DUP1 PUSH1 0xC0 DUP2 ADD LT PUSH1 0x1 PUSH1 0x1 PUSH1 0x40 SHL SUB PUSH1 0xC0 DUP4 ADD GT OR PUSH2 0x610 JUMPI PUSH1 0xC0 DUP2 ADD PUSH1 0x40 MSTORE PUSH1 0x4 CALLDATALOAD DUP2 MSTORE PUSH2 0x3A9 CALLDATASIZE DUP6 DUP10 PUSH2 0xE82 JUMP JUMPDEST SWAP1 PUSH1 0x20 DUP2 ADD SWAP2 DUP3 MSTORE PUSH2 0x3BC CALLDATASIZE DUP6 DUP6 PUSH2 0xE82 JUMP JUMPDEST PUSH1 0x40 DUP3 ADD MSTORE PUSH1 0x1 PUSH1 0x1 PUSH1 0xA0 SHL SUB DUP7 AND PUSH1 0x60 DUP3 ADD MSTORE CALLER PUSH1 0x80 DUP3 ADD MSTORE TIMESTAMP PUSH1 0xA0 DUP3 ADD MSTORE PUSH1 0x3 SLOAD PUSH1 0x1 PUSH1 0x40 SHL DUP2 LT ISZERO PUSH2 0x610 JUMPI DUP1 PUSH1 0x1 PUSH2 0x3FB SWAP3 ADD PUSH1 0x3 SSTORE PUSH2 0xC8B JUMP JUMPDEST SWAP3 SWAP1 SWAP3 PUSH2 0x7D3 JUMPI DUP2 MLOAD DUP4 SSTORE MLOAD DUP1 MLOAD SWAP1 PUSH1 0x1 PUSH1 0x1 PUSH1 0x40 SHL SUB DUP3 GT PUSH2 0x610 JUMPI DUP2 SWAP1 PUSH2 0x427 PUSH1 0x1 DUP7 ADD SLOAD PUSH2 0xCC6 JUMP JUMPDEST PUSH1 0x1F DUP2 GT PUSH2 0x780 JUMPI JUMPDEST POP PUSH1 0x20 SWAP1 PUSH1 0x1F DUP4 GT PUSH1 0x1 EQ PUSH2 0x70E JUMPI PUSH1 0x0 SWAP3 PUSH2 0x703 JUMPI JUMPDEST POP POP DUP2 PUSH1 0x1 SHL SWAP2 PUSH1 0x0 NOT SWAP1 PUSH1 0x3 SHL SHR NOT AND OR PUSH1 0x1 DUP4 ADD SSTORE JUMPDEST PUSH1 0x40 DUP2 ADD MLOAD DUP1 MLOAD SWAP1 PUSH1 0x1 PUSH1 0x1 PUSH1 0x40 SHL SUB DUP3 GT PUSH2 0x610 JUMPI PUSH2 0x482 PUSH1 0x2 DUP6 ADD SLOAD PUSH2 0xCC6 JUMP JUMPDEST PUSH1 0x1F DUP2 GT PUSH2 0x6BC JUMPI JUMPDEST POP PUSH1 0x20 SWAP1 PUSH1 0x1F DUP4 GT PUSH1 0x1 EQ PUSH2 0x647 JUMPI SWAP2 DUP1 PUSH1 0x5 SWAP5 SWAP3 PUSH1 0xA0 SWAP5 PUSH1 0x0 SWAP3 PUSH2 0x63C JUMPI JUMPDEST POP POP DUP2 PUSH1 0x1 SHL SWAP2 PUSH1 0x0 NOT SWAP1 PUSH1 0x3 SHL SHR NOT AND OR PUSH1 0x2 DUP6 ADD SSTORE JUMPDEST PUSH1 0x3 DUP5 ADD PUSH1 0x1 DUP1 DUP5 SHL SUB PUSH1 0x60 DUP4 ADD MLOAD AND SWAP1 PUSH12 0xFFFFFFFFFFFFFFFFFFFFFFFF DUP5 SHL SWAP2 DUP3 DUP3 SLOAD AND OR SWAP1 SSTORE PUSH1 0x4 DUP6 ADD SWAP1 PUSH1 0x1 DUP1 DUP6 SHL SUB PUSH1 0x80 DUP5 ADD MLOAD AND SWAP1 DUP3 SLOAD AND OR SWAP1 SSTORE ADD MLOAD SWAP2 ADD SSTORE PUSH1 0x3 SLOAD SWAP5 DUP6 PUSH1 0x0 NOT DUP2 ADD GT PUSH2 0x626 JUMPI PUSH1 0x4 CALLDATALOAD PUSH1 0x0 MSTORE PUSH1 0x6 PUSH1 0x20 MSTORE PUSH1 0x40 PUSH1 0x0 KECCAK256 SWAP1 PUSH1 0x0 MSTORE PUSH1 0x20 MSTORE DUP5 PUSH1 0x40 PUSH1 0x0 KECCAK256 SSTORE PUSH1 0x1 DUP1 PUSH1 0xA0 SHL SUB DUP5 AND PUSH1 0x0 MSTORE PUSH1 0x7 PUSH1 0x20 MSTORE PUSH1 0x40 PUSH1 0x0 KECCAK256 SWAP2 DUP3 SLOAD SWAP3 PUSH1 0x1 PUSH1 0x40 SHL DUP5 LT ISZERO PUSH2 0x610 JUMPI PUSH1 0x1 DUP5 ADD DUP1 DUP3 SSTORE DUP5 LT ISZERO PUSH2 0x5FA JUMPI PUSH1 0x20 SWAP8 PUSH2 0x5A2 SWAP5 PUSH2 0x595 SWAP3 PUSH1 0x0 MSTORE PUSH1 0x0 NOT DUP10 ADD SWAP1 DUP11 PUSH1 0x0 KECCAK256 ADD SSTORE PUSH1 0x40 MLOAD SWAP6 PUSH1 0x80 DUP8 MSTORE PUSH1 0x80 DUP8 ADD SWAP2 PUSH2 0xEC8 JUMP JUMPDEST SWAP2 DUP5 DUP4 SUB DUP9 DUP7 ADD MSTORE PUSH2 0xEC8 JUMP JUMPDEST CALLER PUSH1 0x40 DUP4 ADD MSTORE PUSH1 0x84 CALLDATALOAD PUSH1 0x60 DUP4 ADD MSTORE PUSH1 0x1 PUSH1 0x1 PUSH1 0xA0 SHL SUB SWAP1 SWAP3 AND SWAP2 PUSH1 0x4 CALLDATALOAD SWAP2 PUSH1 0x0 NOT DUP6 ADD SWAP2 PUSH32 0x9C7AFAFA2F6E5EC5F61A7811D4D91C60C657187F1F16B21CADA4373BC7F13DC5 SWAP2 SWAP1 DUP2 SWAP1 SUB SWAP1 LOG4 PUSH1 0x40 MLOAD SWAP1 PUSH1 0x0 NOT ADD DUP2 MSTORE RETURN JUMPDEST PUSH4 0x4E487B71 PUSH1 0xE0 SHL PUSH1 0x0 MSTORE PUSH1 0x32 PUSH1 0x4 MSTORE PUSH1 0x24 PUSH1 0x0 REVERT JUMPDEST PUSH4 0x4E487B71 PUSH1 0xE0 SHL PUSH1 0x0 MSTORE PUSH1 0x41 PUSH1 0x4 MSTORE PUSH1 0x24 PUSH1 0x0 REVERT JUMPDEST PUSH4 0x4E487B71 PUSH1 0xE0 SHL PUSH1 0x0 MSTORE PUSH1 0x11 PUSH1 0x4 MSTORE PUSH1 0x24 PUSH1 0x0 REVERT JUMPDEST ADD MLOAD SWAP1 POP DUP13 DUP1 PUSH2 0x4AB JUMP JUMPDEST SWAP1 PUSH1 0x2 DUP6 ADD PUSH1 0x0 MSTORE PUSH1 0x20 PUSH1 0x0 KECCAK256 SWAP2 PUSH1 0x0 JUMPDEST PUSH1 0x1F NOT DUP6 AND DUP2 LT PUSH2 0x6A4 JUMPI POP SWAP3 PUSH1 0x5 SWAP5 SWAP3 PUSH1 0x1 SWAP3 PUSH1 0xA0 SWAP6 DUP4 PUSH1 0x1F NOT DUP2 AND LT PUSH2 0x68B JUMPI JUMPDEST POP POP POP DUP2 SHL ADD PUSH1 0x2 DUP6 ADD SSTORE PUSH2 0x4C3 JUMP JUMPDEST ADD MLOAD PUSH1 0x0 NOT PUSH1 0xF8 DUP5 PUSH1 0x3 SHL AND SHR NOT AND SWAP1 SSTORE DUP13 DUP1 DUP1 PUSH2 0x67B JUMP JUMPDEST SWAP2 SWAP3 PUSH1 0x20 PUSH1 0x1 DUP2 SWAP3 DUP7 DUP6 ADD MLOAD DUP2 SSTORE ADD SWAP5 ADD SWAP3 ADD PUSH2 0x658 JUMP JUMPDEST PUSH1 0x2 DUP6 ADD PUSH1 0x0 MSTORE PUSH1 0x20 PUSH1 0x0 KECCAK256 PUSH1 0x1F DUP5 ADD PUSH1 0x5 SHR DUP2 ADD PUSH1 0x20 DUP6 LT PUSH2 0x6FC JUMPI JUMPDEST PUSH1 0x1F DUP4 ADD PUSH1 0x5 SHR DUP3 ADD DUP2 LT PUSH2 0x6F0 JUMPI POP POP PUSH2 0x48B JUMP JUMPDEST PUSH1 0x0 DUP2 SSTORE PUSH1 0x1 ADD PUSH2 0x6DA JUMP JUMPDEST POP DUP1 PUSH2 0x6DA JUMP JUMPDEST ADD MLOAD SWAP1 POP DUP11 DUP1 PUSH2 0x447 JUMP JUMPDEST SWAP3 POP PUSH1 0x1 DUP6 ADD PUSH1 0x0 MSTORE PUSH1 0x20 PUSH1 0x0 KECCAK256 SWAP1 PUSH1 0x0 SWAP4 JUMPDEST PUSH1 0x1F NOT DUP5 AND DUP6 LT PUSH2 0x765 JUMPI PUSH1 0x1 SWAP5 POP DUP4 PUSH1 0x1F NOT DUP2 AND LT PUSH2 0x74C JUMPI JUMPDEST POP POP POP DUP2 SHL ADD PUSH1 0x1 DUP4 ADD SSTORE PUSH2 0x45F JUMP JUMPDEST ADD MLOAD PUSH1 0x0 NOT PUSH1 0xF8 DUP5 PUSH1 0x3 SHL AND SHR NOT AND SWAP1 SSTORE DUP11 DUP1 DUP1 PUSH2 0x73C JUMP JUMPDEST DUP2 DUP2 ADD MLOAD DUP4 SSTORE PUSH1 0x20 SWAP5 DUP6 ADD SWAP5 PUSH1 0x1 SWAP1 SWAP4 ADD SWAP3 SWAP1 SWAP2 ADD SWAP1 PUSH2 0x721 JUMP JUMPDEST SWAP1 SWAP2 POP PUSH1 0x1 DUP6 ADD PUSH1 0x0 MSTORE PUSH1 0x20 PUSH1 0x0 KECCAK256 PUSH1 0x1F DUP5 ADD PUSH1 0x5 SHR DUP2 ADD PUSH1 0x20 DUP6 LT PUSH2 0x7CC JUMPI JUMPDEST SWAP1 DUP5 SWAP4 SWAP3 SWAP2 JUMPDEST PUSH1 0x1F DUP4 ADD PUSH1 0x5 SHR DUP3 ADD DUP2 LT PUSH2 0x7BD JUMPI POP POP PUSH2 0x430 JUMP JUMPDEST PUSH1 0x0 DUP2 SSTORE DUP6 SWAP5 POP PUSH1 0x1 ADD PUSH2 0x7A7 JUMP JUMPDEST POP DUP1 PUSH2 0x7A1 JUMP JUMPDEST PUSH4 0x4E487B71 PUSH1 0xE0 SHL PUSH1 0x0 MSTORE PUSH1 0x0 PUSH1 0x4 MSTORE PUSH1 0x24 PUSH1 0x0 REVERT JUMPDEST PUSH1 0x44 DUP7 PUSH1 0x40 MLOAD SWAP1 PUSH4 0x3EA9E2E1 PUSH1 0xE2 SHL DUP3 MSTORE PUSH1 0x4 CALLDATALOAD PUSH1 0x4 DUP4 ADD MSTORE PUSH1 0x24 DUP3 ADD MSTORE REVERT JUMPDEST PUSH1 0x44 SWAP1 PUSH1 0x40 MLOAD SWAP1 PUSH4 0x6427AEB PUSH1 0xE0 SHL DUP3 MSTORE PUSH1 0x4 DUP3 ADD MSTORE PUSH1 0x84 CALLDATALOAD PUSH1 0x24 DUP3 ADD MSTORE REVERT JUMPDEST PUSH1 0x40 MLOAD PUSH4 0x1606811F PUSH1 0xE2 SHL DUP2 MSTORE PUSH1 0x1 PUSH1 0x1 PUSH1 0xA0 SHL SUB DUP7 AND PUSH1 0x4 DUP3 ADD MSTORE PUSH1 0x24 SWAP1 REVERT JUMPDEST PUSH1 0x40 MLOAD PUSH4 0xCD21DB4F PUSH1 0xE0 SHL DUP2 MSTORE PUSH1 0xA4 CALLDATALOAD PUSH1 0x4 DUP3 ADD MSTORE PUSH1 0x24 SWAP1 REVERT JUMPDEST CALLVALUE PUSH2 0xD1 JUMPI PUSH1 0x40 CALLDATASIZE PUSH1 0x3 NOT ADD SLT PUSH2 0xD1 JUMPI PUSH2 0x87D PUSH2 0xC75 JUMP JUMPDEST PUSH1 0x24 CALLDATALOAD SWAP1 DUP2 ISZERO ISZERO DUP1 SWAP3 SUB PUSH2 0xD1 JUMPI PUSH1 0x20 PUSH32 0x7A6DD775B9B6AA6EBDE6F0C51172EF328EB9658E095364751705F28234E7257C SWAP2 PUSH2 0x8B7 PUSH2 0xEE9 JUMP JUMPDEST PUSH1 0x1 DUP1 PUSH1 0xA0 SHL SUB AND SWAP3 DUP4 PUSH1 0x0 MSTORE PUSH1 0x4 DUP3 MSTORE PUSH1 0x40 PUSH1 0x0 KECCAK256 PUSH1 0xFF NOT DUP2 SLOAD AND PUSH1 0xFF DUP4 AND OR SWAP1 SSTORE PUSH1 0x40 MLOAD SWAP1 DUP2 MSTORE LOG2 STOP JUMPDEST CALLVALUE PUSH2 0xD1 JUMPI PUSH1 0x0 CALLDATASIZE PUSH1 0x3 NOT ADD SLT PUSH2 0xD1 JUMPI PUSH1 0x2 SLOAD PUSH1 0x40 MLOAD PUSH1 0x1 PUSH1 0x1 PUSH1 0xA0 SHL SUB SWAP1 SWAP2 AND DUP2 MSTORE PUSH1 0x20 SWAP1 RETURN JUMPDEST CALLVALUE PUSH2 0xD1 JUMPI PUSH1 0x20 DUP1 PUSH1 0x3 NOT CALLDATASIZE ADD SLT PUSH2 0xD1 JUMPI PUSH1 0x1 PUSH1 0x1 PUSH1 0xA0 SHL SUB PUSH2 0x92E PUSH2 0xC75 JUMP JUMPDEST AND PUSH1 0x0 MSTORE PUSH1 0x7 DUP2 MSTORE PUSH1 0x40 PUSH1 0x0 KECCAK256 SWAP1 PUSH1 0x40 MLOAD DUP1 DUP4 DUP4 DUP3 SWAP6 SLOAD SWAP4 DUP5 DUP2 MSTORE ADD SWAP1 PUSH1 0x0 MSTORE DUP4 PUSH1 0x0 KECCAK256 SWAP3 PUSH1 0x0 JUMPDEST DUP6 DUP3 DUP3 LT PUSH2 0x985 JUMPI POP POP POP PUSH2 0x96D SWAP3 POP SUB DUP4 PUSH2 0xD1B JUMP JUMPDEST PUSH2 0x981 PUSH1 0x40 MLOAD SWAP3 DUP3 DUP5 SWAP4 DUP5 MSTORE DUP4 ADD SWAP1 PUSH2 0xE4E JUMP JUMPDEST SUB SWAP1 RETURN JUMPDEST DUP6 SLOAD DUP5 MSTORE PUSH1 0x1 SWAP6 DUP7 ADD SWAP6 DUP9 SWAP6 POP SWAP4 ADD SWAP3 ADD PUSH2 0x956 JUMP JUMPDEST CALLVALUE PUSH2 0xD1 JUMPI PUSH1 0x0 CALLDATASIZE PUSH1 0x3 NOT ADD SLT PUSH2 0xD1 JUMPI PUSH2 0x9D5 PUSH32 0x0 PUSH2 0x103F JUMP JUMPDEST PUSH2 0x9FE PUSH32 0x0 PUSH2 0x1143 JUMP JUMPDEST SWAP1 PUSH1 0x40 MLOAD SWAP2 PUSH1 0x20 DUP4 ADD SWAP3 DUP1 DUP5 LT PUSH1 0x1 PUSH1 0x1 PUSH1 0x40 SHL SUB DUP6 GT OR PUSH2 0x610 JUMPI PUSH2 0xA58 PUSH2 0x981 SWAP3 PUSH2 0xA4A SWAP6 PUSH1 0x40 MSTORE PUSH1 0x0 DUP4 MSTORE PUSH1 0x40 MLOAD SWAP6 DUP7 SWAP6 PUSH1 0xF PUSH1 0xF8 SHL DUP8 MSTORE PUSH1 0xE0 PUSH1 0x20 DUP9 ADD MSTORE PUSH1 0xE0 DUP8 ADD SWAP1 PUSH2 0xDE1 JUMP JUMPDEST SWAP1 DUP6 DUP3 SUB PUSH1 0x40 DUP8 ADD MSTORE PUSH2 0xDE1 JUMP JUMPDEST SWAP1 CHAINID PUSH1 0x60 DUP6 ADD MSTORE ADDRESS PUSH1 0x80 DUP6 ADD MSTORE PUSH1 0x0 PUSH1 0xA0 DUP6 ADD MSTORE DUP4 DUP3 SUB PUSH1 0xC0 DUP6 ADD MSTORE PUSH2 0xE4E JUMP JUMPDEST CALLVALUE PUSH2 0xD1 JUMPI PUSH1 0x20 CALLDATASIZE PUSH1 0x3 NOT ADD SLT PUSH2 0xD1 JUMPI PUSH1 0x1 PUSH1 0x1 PUSH1 0xA0 SHL SUB PUSH2 0xA9A PUSH2 0xC75 JUMP JUMPDEST AND PUSH1 0x0 MSTORE PUSH1 0x5 PUSH1 0x20 MSTORE PUSH1 0x20 PUSH1 0x40 PUSH1 0x0 KECCAK256 SLOAD PUSH1 0x40 MLOAD SWAP1 DUP2 MSTORE RETURN JUMPDEST CALLVALUE PUSH2 0xD1 JUMPI PUSH1 0x0 CALLDATASIZE PUSH1 0x3 NOT ADD SLT PUSH2 0xD1 JUMPI PUSH2 0xACC PUSH2 0xEE9 JUMP JUMPDEST PUSH1 0x2 DUP1 SLOAD PUSH1 0x1 PUSH1 0x1 PUSH1 0xA0 SHL SUB NOT DUP2 AND SWAP1 SWAP2 SSTORE PUSH1 0x0 SWAP1 PUSH1 0x1 PUSH1 0x1 PUSH1 0xA0 SHL SUB AND PUSH32 0x8BE0079C531659141344CD1FD0A4F28419497F9722A3DAAFE3B4186F6B6457E0 DUP3 DUP1 LOG3 STOP JUMPDEST CALLVALUE PUSH2 0xD1 JUMPI PUSH1 0x0 CALLDATASIZE PUSH1 0x3 NOT ADD SLT PUSH2 0xD1 JUMPI PUSH1 0x20 PUSH1 0x3 SLOAD PUSH1 0x40 MLOAD SWAP1 DUP2 MSTORE RETURN JUMPDEST CALLVALUE PUSH2 0xD1 JUMPI PUSH1 0x40 CALLDATASIZE PUSH1 0x3 NOT ADD SLT PUSH2 0xD1 JUMPI PUSH1 0x24 CALLDATALOAD PUSH1 0x1 PUSH1 0x1 PUSH1 0x40 SHL SUB DUP2 GT PUSH2 0xD1 JUMPI PUSH2 0xB61 PUSH2 0xB7B SWAP2 CALLDATASIZE SWAP1 PUSH1 0x4 ADD PUSH2 0xE21 JUMP JUMPDEST SWAP2 SWAP1 PUSH1 0x4 CALLDATALOAD PUSH1 0x0 MSTORE PUSH1 0x6 PUSH1 0x20 MSTORE PUSH1 0x40 PUSH1 0x0 KECCAK256 SWAP3 CALLDATASIZE SWAP2 PUSH2 0xE82 JUMP JUMPDEST PUSH1 0x20 DUP2 MLOAD SWAP2 ADD KECCAK256 PUSH1 0x0 MSTORE PUSH1 0x20 MSTORE PUSH1 0x20 PUSH1 0x40 PUSH1 0x0 KECCAK256 SLOAD ISZERO ISZERO PUSH1 0x40 MLOAD SWAP1 DUP2 MSTORE RETURN JUMPDEST CALLVALUE PUSH2 0xD1 JUMPI PUSH1 0x20 CALLDATASIZE PUSH1 0x3 NOT ADD SLT PUSH2 0xD1 JUMPI PUSH1 0x4 CALLDATALOAD PUSH1 0x3 SLOAD DUP2 LT ISZERO PUSH2 0xD1 JUMPI PUSH2 0xBC1 SWAP1 PUSH2 0xC8B JUMP JUMPDEST POP DUP1 SLOAD PUSH2 0xBD0 PUSH1 0x1 DUP4 ADD PUSH2 0xD3C JUMP JUMPDEST SWAP2 PUSH2 0xBDD PUSH1 0x2 DUP3 ADD PUSH2 0xD3C JUMP JUMPDEST PUSH1 0x1 DUP1 PUSH1 0xA0 SHL SUB SWAP2 PUSH2 0xC26 PUSH1 0x5 DUP5 PUSH1 0x3 DUP5 ADD SLOAD AND SWAP5 PUSH1 0x4 DUP5 ADD SLOAD AND SWAP3 ADD SLOAD SWAP3 PUSH2 0xC18 PUSH1 0x40 MLOAD SWAP8 DUP9 SWAP8 DUP9 MSTORE PUSH1 0xC0 PUSH1 0x20 DUP10 ADD MSTORE PUSH1 0xC0 DUP9 ADD SWAP1 PUSH2 0xDE1 JUMP JUMPDEST SWAP1 DUP7 DUP3 SUB PUSH1 0x40 DUP9 ADD MSTORE PUSH2 0xDE1 JUMP JUMPDEST SWAP3 PUSH1 0x60 DUP6 ADD MSTORE PUSH1 0x80 DUP5 ADD MSTORE PUSH1 0xA0 DUP4 ADD MSTORE SUB SWAP1 RETURN JUMPDEST CALLVALUE PUSH2 0xD1 JUMPI PUSH1 0x20 CALLDATASIZE PUSH1 0x3 NOT ADD SLT PUSH2 0xD1 JUMPI PUSH1 0x20 SWAP1 PUSH1 0x1 PUSH1 0x1 PUSH1 0xA0 SHL SUB PUSH2 0xC5E PUSH2 0xC75 JUMP JUMPDEST AND PUSH1 0x0 MSTORE PUSH1 0x4 DUP3 MSTORE PUSH1 0xFF PUSH1 0x40 PUSH1 0x0 KECCAK256 SLOAD AND ISZERO ISZERO DUP2 MSTORE RETURN JUMPDEST PUSH1 0x4 CALLDATALOAD SWAP1 PUSH1 0x1 PUSH1 0x1 PUSH1 0xA0 SHL SUB DUP3 AND DUP3 SUB PUSH2 0xD1 JUMPI JUMP JUMPDEST PUSH1 0x3 SLOAD DUP2 LT ISZERO PUSH2 0x5FA JUMPI PUSH1 0x6 SWAP1 PUSH1 0x3 PUSH1 0x0 MSTORE MUL PUSH32 0xC2575A0E9E593C00F959F8C92F12DB2869C3395A3B0502D05E2516446F71F85B ADD SWAP1 PUSH1 0x0 SWAP1 JUMP JUMPDEST SWAP1 PUSH1 0x1 DUP3 DUP2 SHR SWAP3 AND DUP1 ISZERO PUSH2 0xCF6 JUMPI JUMPDEST PUSH1 0x20 DUP4 LT EQ PUSH2 0xCE0 JUMPI JUMP JUMPDEST PUSH4 0x4E487B71 PUSH1 0xE0 SHL PUSH1 0x0 MSTORE PUSH1 0x22 PUSH1 0x4 MSTORE PUSH1 0x24 PUSH1 0x0 REVERT JUMPDEST SWAP2 PUSH1 0x7F AND SWAP2 PUSH2 0xCD5 JUMP JUMPDEST PUSH1 0x40 DUP2 ADD SWAP1 DUP2 LT PUSH1 0x1 PUSH1 0x1 PUSH1 0x40 SHL SUB DUP3 GT OR PUSH2 0x610 JUMPI PUSH1 0x40 MSTORE JUMP JUMPDEST SWAP1 PUSH1 0x1F DUP1 NOT SWAP2 ADD AND DUP2 ADD SWAP1 DUP2 LT PUSH1 0x1 PUSH1 0x1 PUSH1 0x40 SHL SUB DUP3 GT OR PUSH2 0x610 JUMPI PUSH1 0x40 MSTORE JUMP JUMPDEST SWAP1 PUSH1 0x40 MLOAD SWAP2 DUP3 PUSH1 0x0 DUP3 SLOAD PUSH2 0xD4F DUP2 PUSH2 0xCC6 JUMP JUMPDEST SWAP1 DUP2 DUP5 MSTORE PUSH1 0x20 SWAP5 PUSH1 0x1 SWAP2 PUSH1 0x1 DUP2 AND SWAP1 DUP2 PUSH1 0x0 EQ PUSH2 0xDBF JUMPI POP PUSH1 0x1 EQ PUSH2 0xD80 JUMPI JUMPDEST POP POP POP PUSH2 0xD7E SWAP3 POP SUB DUP4 PUSH2 0xD1B JUMP JUMPDEST JUMP JUMPDEST PUSH1 0x0 SWAP1 DUP2 MSTORE DUP6 DUP2 KECCAK256 SWAP6 SWAP4 POP SWAP2 SWAP1 JUMPDEST DUP2 DUP4 LT PUSH2 0xDA7 JUMPI POP POP PUSH2 0xD7E SWAP4 POP DUP3 ADD ADD CODESIZE DUP1 DUP1 PUSH2 0xD6F JUMP JUMPDEST DUP6 SLOAD DUP9 DUP5 ADD DUP6 ADD MSTORE SWAP5 DUP6 ADD SWAP5 DUP8 SWAP5 POP SWAP2 DUP4 ADD SWAP2 PUSH2 0xD8E JUMP JUMPDEST SWAP3 POP POP POP PUSH2 0xD7E SWAP5 SWAP3 POP PUSH1 0xFF NOT AND DUP3 DUP5 ADD MSTORE ISZERO ISZERO PUSH1 0x5 SHL DUP3 ADD ADD CODESIZE DUP1 DUP1 PUSH2 0xD6F JUMP JUMPDEST SWAP2 SWAP1 DUP3 MLOAD SWAP3 DUP4 DUP3 MSTORE PUSH1 0x0 JUMPDEST DUP5 DUP2 LT PUSH2 0xE0D JUMPI POP POP DUP3 PUSH1 0x0 PUSH1 0x20 DUP1 SWAP5 SWAP6 DUP5 ADD ADD MSTORE PUSH1 0x1F DUP1 NOT SWAP2 ADD AND ADD ADD SWAP1 JUMP JUMPDEST PUSH1 0x20 DUP2 DUP4 ADD DUP2 ADD MLOAD DUP5 DUP4 ADD DUP3 ADD MSTORE ADD PUSH2 0xDEC JUMP JUMPDEST SWAP2 DUP2 PUSH1 0x1F DUP5 ADD SLT ISZERO PUSH2 0xD1 JUMPI DUP3 CALLDATALOAD SWAP2 PUSH1 0x1 PUSH1 0x1 PUSH1 0x40 SHL SUB DUP4 GT PUSH2 0xD1 JUMPI PUSH1 0x20 DUP4 DUP2 DUP7 ADD SWAP6 ADD ADD GT PUSH2 0xD1 JUMPI JUMP JUMPDEST SWAP1 DUP2 MLOAD DUP1 DUP3 MSTORE PUSH1 0x20 DUP1 DUP1 SWAP4 ADD SWAP4 ADD SWAP2 PUSH1 0x0 JUMPDEST DUP3 DUP2 LT PUSH2 0xE6E JUMPI POP POP POP POP SWAP1 JUMP JUMPDEST DUP4 MLOAD DUP6 MSTORE SWAP4 DUP2 ADD SWAP4 SWAP3 DUP2 ADD SWAP3 PUSH1 0x1 ADD PUSH2 0xE60 JUMP JUMPDEST SWAP3 SWAP2 SWAP3 PUSH1 0x1 PUSH1 0x1 PUSH1 0x40 SHL SUB DUP3 GT PUSH2 0x610 JUMPI PUSH1 0x40 MLOAD SWAP2 PUSH2 0xEAB PUSH1 0x1F DUP3 ADD PUSH1 0x1F NOT AND PUSH1 0x20 ADD DUP5 PUSH2 0xD1B JUMP JUMPDEST DUP3 SWAP5 DUP2 DUP5 MSTORE DUP2 DUP4 ADD GT PUSH2 0xD1 JUMPI DUP3 DUP2 PUSH1 0x20 SWAP4 DUP5 PUSH1 0x0 SWAP7 ADD CALLDATACOPY ADD ADD MSTORE JUMP JUMPDEST SWAP1 DUP1 PUSH1 0x20 SWAP4 SWAP3 DUP2 DUP5 MSTORE DUP5 DUP5 ADD CALLDATACOPY PUSH1 0x0 DUP3 DUP3 ADD DUP5 ADD MSTORE PUSH1 0x1F ADD PUSH1 0x1F NOT AND ADD ADD SWAP1 JUMP JUMPDEST PUSH1 0x2 SLOAD PUSH1 0x1 PUSH1 0x1 PUSH1 0xA0 SHL SUB AND CALLER SUB PUSH2 0xEFD JUMPI JUMP JUMPDEST PUSH1 0x40 MLOAD PUSH4 0x118CDAA7 PUSH1 0xE0 SHL DUP2 MSTORE CALLER PUSH1 0x4 DUP3 ADD MSTORE PUSH1 0x24 SWAP1 REVERT JUMPDEST ADDRESS PUSH32 0x0 PUSH1 0x1 PUSH1 0x1 PUSH1 0xA0 SHL SUB AND EQ DUP1 PUSH2 0x1016 JUMPI JUMPDEST ISZERO PUSH2 0xF70 JUMPI PUSH32 0x0 SWAP1 JUMP JUMPDEST PUSH1 0x40 MLOAD PUSH1 0x20 DUP2 ADD SWAP1 PUSH32 0x8B73C3C69BB8FE3D512ECC4CF759CC79239F7B179B0FFACAA9A75D522B39400F DUP3 MSTORE PUSH32 0x0 PUSH1 0x40 DUP3 ADD MSTORE PUSH32 0x0 PUSH1 0x60 DUP3 ADD MSTORE CHAINID PUSH1 0x80 DUP3 ADD MSTORE ADDRESS PUSH1 0xA0 DUP3 ADD MSTORE PUSH1 0xA0 DUP2 MSTORE PUSH1 0xC0 DUP2 ADD DUP2 DUP2 LT PUSH1 0x1 PUSH1 0x1 PUSH1 0x40 SHL SUB DUP3 GT OR PUSH2 0x610 JUMPI PUSH1 0x40 MSTORE MLOAD SWAP1 KECCAK256 SWAP1 JUMP JUMPDEST POP PUSH32 0x0 CHAINID EQ PUSH2 0xF47 JUMP JUMPDEST PUSH1 0xFF DUP2 EQ PUSH2 0x107D JUMPI PUSH1 0xFF DUP2 AND SWAP1 PUSH1 0x1F DUP3 GT PUSH2 0x106B JUMPI PUSH1 0x40 MLOAD SWAP2 PUSH2 0x1061 DUP4 PUSH2 0xD00 JUMP JUMPDEST DUP3 MSTORE PUSH1 0x20 DUP3 ADD MSTORE SWAP1 JUMP JUMPDEST PUSH1 0x40 MLOAD PUSH4 0x2CD44AC3 PUSH1 0xE2 SHL DUP2 MSTORE PUSH1 0x4 SWAP1 REVERT JUMPDEST POP PUSH1 0x40 MLOAD PUSH1 0x0 DUP2 PUSH1 0x0 SLOAD SWAP2 PUSH2 0x1091 DUP4 PUSH2 0xCC6 JUMP JUMPDEST DUP1 DUP4 MSTORE SWAP3 PUSH1 0x20 SWAP1 PUSH1 0x1 SWAP1 DUP2 DUP2 AND SWAP1 DUP2 ISZERO PUSH2 0x111F JUMPI POP PUSH1 0x1 EQ PUSH2 0x10BF JUMPI JUMPDEST POP POP PUSH2 0x10BC SWAP3 POP SUB DUP3 PUSH2 0xD1B JUMP JUMPDEST SWAP1 JUMP JUMPDEST SWAP2 POP SWAP3 PUSH1 0x0 DUP1 MSTORE PUSH32 0x290DECD9548B62A8D60345A988386FC84BA6BC95484008F6362F93160EF3E563 SWAP4 PUSH1 0x0 SWAP3 JUMPDEST DUP3 DUP5 LT PUSH2 0x1107 JUMPI POP PUSH2 0x10BC SWAP5 POP POP POP DUP2 ADD PUSH1 0x20 ADD CODESIZE DUP1 PUSH2 0x10AE JUMP JUMPDEST DUP6 SLOAD DUP8 DUP6 ADD DUP4 ADD MSTORE SWAP5 DUP6 ADD SWAP5 DUP7 SWAP5 POP SWAP3 DUP2 ADD SWAP3 PUSH2 0x10EC JUMP JUMPDEST SWAP2 POP POP PUSH1 0x20 SWAP3 POP PUSH2 0x10BC SWAP5 SWAP2 POP PUSH1 0xFF NOT AND DUP3 DUP5 ADD MSTORE ISZERO ISZERO PUSH1 0x5 SHL DUP3 ADD ADD CODESIZE DUP1 PUSH2 0x10AE JUMP JUMPDEST PUSH1 0xFF DUP2 EQ PUSH2 0x1165 JUMPI PUSH1 0xFF DUP2 AND SWAP1 PUSH1 0x1F DUP3 GT PUSH2 0x106B JUMPI PUSH1 0x40 MLOAD SWAP2 PUSH2 0x1061 DUP4 PUSH2 0xD00 JUMP JUMPDEST POP PUSH1 0x40 MLOAD PUSH1 0x0 DUP2 PUSH1 0x1 SWAP2 PUSH1 0x1 SLOAD PUSH2 0x117B DUP2 PUSH2 0xCC6 JUMP JUMPDEST DUP1 DUP5 MSTORE SWAP4 PUSH1 0x20 SWAP2 PUSH1 0x1 DUP2 AND SWAP1 DUP2 ISZERO PUSH2 0x111F JUMPI POP PUSH1 0x1 EQ PUSH2 0x11A3 JUMPI POP POP PUSH2 0x10BC SWAP3 POP SUB DUP3 PUSH2 0xD1B JUMP JUMPDEST SWAP2 POP SWAP3 PUSH1 0x1 PUSH1 0x0 MSTORE PUSH32 0xB10E2D527612073B26EECDFD717E6A320CF44B4AFAC2B0732D9FCBE2B7FA0CF6 SWAP4 PUSH1 0x0 SWAP3 JUMPDEST DUP3 DUP5 LT PUSH2 0x11EC JUMPI POP PUSH2 0x10BC SWAP5 POP POP POP DUP2 ADD PUSH1 0x20 ADD CODESIZE DUP1 PUSH2 0x10AE JUMP JUMPDEST DUP6 SLOAD DUP8 DUP6 ADD DUP4 ADD MSTORE SWAP5 DUP6 ADD SWAP5 DUP7 SWAP5 POP SWAP3 DUP2 ADD SWAP3 PUSH2 0x11D1 JUMP JUMPDEST DUP2 MLOAD SWAP2 SWAP1 PUSH1 0x41 DUP4 SUB PUSH2 0x1235 JUMPI PUSH2 0x122E SWAP3 POP PUSH1 0x20 DUP3 ADD MLOAD SWAP1 PUSH1 0x60 PUSH1 0x40 DUP5 ADD MLOAD SWAP4 ADD MLOAD PUSH1 0x0 BYTE SWAP1 PUSH2 0x12C5 JUMP JUMPDEST SWAP2 SWAP3 SWAP1 SWAP2 SWAP1 JUMP JUMPDEST POP POP PUSH1 0x0 SWAP2 PUSH1 0x2 SWAP2 SWAP1 JUMP JUMPDEST PUSH1 0x4 DUP2 LT ISZERO PUSH2 0x12AF JUMPI DUP1 PUSH2 0x1252 JUMPI POP POP JUMP JUMPDEST PUSH1 0x1 DUP2 SUB PUSH2 0x126C JUMPI PUSH1 0x40 MLOAD PUSH4 0xF645EEDF PUSH1 0xE0 SHL DUP2 MSTORE PUSH1 0x4 SWAP1 REVERT JUMPDEST PUSH1 0x2 DUP2 SUB PUSH2 0x128D JUMPI PUSH1 0x40 MLOAD PUSH4 0xFCE698F7 PUSH1 0xE0 SHL DUP2 MSTORE PUSH1 0x4 DUP2 ADD DUP4 SWAP1 MSTORE PUSH1 0x24 SWAP1 REVERT JUMPDEST PUSH1 0x3 EQ PUSH2 0x1297 JUMPI POP JUMP JUMPDEST PUSH1 0x24 SWAP1 PUSH1 0x40 MLOAD SWAP1 PUSH4 0x35E2F383 PUSH1 0xE2 SHL DUP3 MSTORE PUSH1 0x4 DUP3 ADD MSTORE REVERT JUMPDEST PUSH4 0x4E487B71 PUSH1 0xE0 SHL PUSH1 0x0 MSTORE PUSH1 0x21 PUSH1 0x4 MSTORE PUSH1 0x24 PUSH1 0x0 REVERT JUMPDEST SWAP2 SWAP1 PUSH32 0x7FFFFFFFFFFFFFFFFFFFFFFFFFFFFFFF5D576E7357A4501DDFE92F46681B20A0 DUP5 GT PUSH2 0x1349 JUMPI SWAP3 PUSH1 0x20 SWAP3 SWAP2 PUSH1 0xFF PUSH1 0x80 SWAP6 PUSH1 0x40 MLOAD SWAP5 DUP6 MSTORE AND DUP5 DUP5 ADD MSTORE PUSH1 0x40 DUP4 ADD MSTORE PUSH1 0x60 DUP3 ADD MSTORE PUSH1 0x0 SWAP3 DUP4 SWAP2 DUP3 DUP1 MSTORE PUSH1 0x1 GAS STATICCALL ISZERO PUSH2 0x133D JUMPI DUP1 MLOAD PUSH1 0x1 PUSH1 0x1 PUSH1 0xA0 SHL SUB DUP2 AND ISZERO PUSH2 0x1334 JUMPI SWAP2 DUP2 SWAP1 JUMP JUMPDEST POP DUP1 SWAP2 PUSH1 0x1 SWAP2 SWAP1 JUMP JUMPDEST PUSH1 0x40 MLOAD SWAP1 RETURNDATASIZE SWAP1 DUP3 RETURNDATACOPY RETURNDATASIZE SWAP1 REVERT JUMPDEST POP POP POP PUSH1 0x0 SWAP2 PUSH1 0x3 SWAP2 SWAP1 JUMP INVALID LOG2 PUSH5 0x6970667358 0x22 SLT KECCAK256 0xE2 SWAP15 0xD6 0xF SHR GASLIMIT 0xE7 PUSH14 0x8C3C90AECDFC4423F4D8AB24D85D SGT CODESIZE 0xB5 0xDE 0xC8 0xDE REVERT 0xF SHR RETURNDATASIZE PUSH5 0x736F6C6343 STOP ADDMOD XOR STOP CALLER "},"methodIdentifiers":{"domainSeparator()":"f698da25","eip712Domain()":"84b0196e","isRegistered(bytes32,string)":"4a7a9c7d","isVerifier(address)":"33105218","nonces(address)":"7ecebe00","owner()":"8da5cb5b","recordBreachWithProof(bytes32,string,string,address,uint256,uint256,bytes)":"f2b669c1","records(uint256)":"34461067","recordsOfBeneficiary(address)":"8a733f5b","renounceOwnership()":"715018a6","setVerifier(address,bool)":"ac9b5671","totalBreaches()":"5e123664","transferOwnership(address)":"f2fde38b"}}}}}