{"contracts/RemediationVault.sol":{"RemediationVault":{"abi":[{"inputs":[],"stateMutability":"nonpayable","type":"constructor"},{"inputs":[{"internalType":"address","name":"target","type":"address"}],"name":"AddressEmptyCode","type":"error"},{"inputs":[{"internalType":"address","name":"account","type":"address"}],"name":"AddressInsufficientBalance","type":"error"},{"inputs":[],"name":"FailedInnerCall","type":"error"},{"inputs":[{"internalType":"uint256","name":"available","type":"uint256"},{"internalType":"uint256","name":"requested","type":"uint256"}],"name":"InsufficientBalance","type":"error"},{"inputs":[],"name":"InvalidAmount","type":"error"},{"inputs":[],"name":"InvalidRecipient","type":"error"},{"inputs":[],"name":"NotOwner","type":"error"},{"inputs":[],"name":"ReentrancyGuardReentrantCall","type":"error"},{"inputs":[{"internalType":"address","name":"token","type":"address"}],"name":"SafeERC20FailedOperation","type":"error"},{"inputs":[],"name":"VaultPaused","type":"error"},{"anonymous":false,"inputs":[{"indexed":true,"internalType":"address","name":"user","type":"address"},{"indexed":false,"internalType":"uint256","name":"amount","type":"uint256"}],"name":"NativeDeposited","type":"event"},{"anonymous":false,"inputs":[{"indexed":true,"internalType":"address","name":"user","type":"address"},{"indexed":true,"internalType":"address","name":"to","type":"address"},{"indexed":false,"internalType":"uint256","name":"amount","type":"uint256"}],"name":"NativeWithdrawn","type":"event"},{"anonymous":false,"inputs":[{"indexed":false,"internalType":"bool","name":"paused","type":"bool"}],"name":"PauseToggled","type":"event"},{"anonymous":false,"inputs":[{"indexed":true,"internalType":"address","name":"user","type":"address"},{"indexed":true,"internalType":"address","name":"token","type":"address"},{"indexed":false,"internalType":"uint256","name":"amount","type":"uint256"}],"name":"TokenDeposited","type":"event"},{"anonymous":false,"inputs":[{"indexed":true,"internalType":"address","name":"user","type":"address"},{"indexed":true,"internalType":"address","name":"token","type":"address"},{"indexed":true,"internalType":"address","name":"to","type":"address"},{"indexed":false,"internalType":"uint256","name":"amount","type":"uint256"}],"name":"TokenWithdrawn","type":"event"},{"inputs":[{"internalType":"address","name":"token","type":"address"},{"internalType":"uint256","name":"amount","type":"uint256"}],"name":"depositERC20","outputs":[],"stateMutability":"nonpayable","type":"function"},{"inputs":[],"name":"depositNative","outputs":[],"stateMutability":"payable","type":"function"},{"inputs":[{"internalType":"address","name":"","type":"address"}],"name":"nativeBalanceOf","outputs":[{"internalType":"uint256","name":"","type":"uint256"}],"stateMutability":"view","type":"function"},{"inputs":[],"name":"owner","outputs":[{"internalType":"address","name":"","type":"address"}],"stateMutability":"view","type":"function"},{"inputs":[],"name":"paused","outputs":[{"internalType":"bool","name":"","type":"bool"}],"stateMutability":"view","type":"function"},{"inputs":[{"internalType":"bool","name":"_paused","type":"bool"}],"name":"setPaused","outputs":[],"stateMutability":"nonpayable","type":"function"},{"inputs":[{"internalType":"address","name":"","type":"address"},{"internalType":"address","name":"","type":"address"}],"name":"tokenBalanceOf","outputs":[{"internalType":"uint256","name":"","type":"uint256"}],"stateMutability":"view","type":"function"},{"inputs":[{"internalType":"address","name":"token","type":"address"},{"internalType":"address","name":"to","type":"address"},{"internalType":"uint256","name":"amount","type":"uint256"}],"name":"withdrawERC20","outputs":[],"stateMutability":"nonpayable","type":"function"},{"inputs":[{"internalType":"address payable","name":"to","type":"address"},{"internalType":"uint256","name":"amount","type":"uint256"}],"name":"withdrawNative","outputs":[],"stateMutability":"nonpayable","type":"function"},{"stateMutability":"payable","type":"receive"}],"evm":{"bytecode":{"linkReferences":{},"object":"60a0806040523461002f5760016000553360805261081b9081610035823960805181818161022001526104330152f35b600080fdfe604060808152600480361015610027575b5050361561001d57600080fd5b610025610679565b005b600091823560e01c806307b18bde146104b057806316c38b3c146104125780631bea8006146103c957806344004cc1146102735780635c975abb1461024f5780638da5cb5b1461020b57806395270ba7146101cf57806397feb926146100c95763db6b5246146100975750610010565b826003193601126100c55760ff600354166100b857826100b5610679565b80f35b516336a7e2cd60e21b8152fd5b8280fd5b50346100c557806003193601126100c5576100e26105c4565b906024359160ff600354166101bf5782156101af5781516323b872dd60e01b6020820152336024820152306044820152606480820185905281526001600160a01b03919091169360a082019067ffffffffffffffff82118383101761019c5750825261014e90846106fd565b338452600260205280842083855260205280842061016d838254610656565b9055519081527ff1444b5cad7ce70cb018d1b8edc8618fe303f3c7f034d8d572a6e27facbf2bef60203392a380f35b634e487b7160e01b875260419052602486fd5b815163162908e360e11b81528490fd5b81516336a7e2cd60e21b81528490fd5b8382346102075760203660031901126102075760209181906001600160a01b036101f76105c4565b1681526001845220549051908152f35b5080fd5b838234610207578160031936011261020757517f00000000000000000000000000000000000000000000000000000000000000006001600160a01b03168152602090f35b83823461020757816003193601126102075760209060ff6003541690519015158152f35b50346100c55760603660031901126100c55761028d6105c4565b906102966105df565b604435916102a26106da565b60ff600354166103ba576001600160a01b039182169485156103ac57831561039e573387526020926002845282882095169485885283528187205484811061038357849033895260028552838920878a528552038288205581519063a9059cbb60e01b8483015286602483015284604483015260448252608082019082821067ffffffffffffffff83111761037057508291610362917ff398d9df386b57ebd82915250392590009e26ddacbed7a8c50a6016cc83d785c959452866106fd565b519283523392a46001815580f35b634e487b7160e01b895260419052602488fd5b8490604493519263cf47918160e01b84528301526024820152fd5b905163162908e360e11b8152fd5b9051634e46966960e11b8152fd5b516336a7e2cd60e21b81528490fd5b838234610207578060031936011261020757806020926103e76105c4565b6103ef6105df565b6001600160a01b0391821683526002865283832091168252845220549051908152f35b50346100c55760203660031901126100c5578135918215158093036104ac577f00000000000000000000000000000000000000000000000000000000000000006001600160a01b0316330361049e57507f9077d36bc00859b5c3f320310707208543dd35092cb0a0fe117d0c6a558b148b9160209160ff196003541660ff83161760035551908152a180f35b90516330cd747160e01b8152fd5b8380fd5b5090346100c557816003193601126100c55780356001600160a01b03811692908390036104ac57602435916104e36106da565b60ff600354166105b65783156103ac57821561039e5733855260016020528185205483811061059b578390338752600160205203828620558480808086885af161052b6105f5565b50156105635750519081527f25f87458c8909458f30b44f37f5ac9c2bf509c221e295fcc65a0c7e013509aee60203392a36001815580f35b6020606492519162461bcd60e51b835282015260136024820152721353d3881d1c985b9cd9995c8819985a5b1959606a1b6044820152fd5b6044939192519263cf47918160e01b84528301526024820152fd5b90516336a7e2cd60e21b8152fd5b600435906001600160a01b03821682036105da57565b600080fd5b602435906001600160a01b03821682036105da57565b3d156106515767ffffffffffffffff903d82811161063b5760405192601f8201601f19908116603f011684019081118482101761063b5760405282523d6000602084013e565b634e487b7160e01b600052604160045260246000fd5b606090565b9190820180921161066357565b634e487b7160e01b600052601160045260246000fd5b34156106c8573360005260016020526040600020610698348254610656565b90556040513481527fb5d7700fb0cf415158b8db7cc7c39f0eab16a825c92e221404b4c8bb099b4bbb60203392a2565b60405163162908e360e11b8152600490fd5b6002600054146106eb576002600055565b604051633ee5aeb560e01b8152600490fd5b60018060a01b031690610727600080836020829551910182875af16107206105f5565b9084610782565b908151918215159283610757575b50505061073f5750565b60249060405190635274afe760e01b82526004820152fd5b81929350906020918101031261020757602001519081159182150361077f5750388080610735565b80fd5b906107a9575080511561079757805190602001fd5b604051630a12f52160e11b8152600490fd5b815115806107dc575b6107ba575090565b604051639996b31560e01b81526001600160a01b039091166004820152602490fd5b50803b156107b256fea2646970667358221220ef538fd7fff3a487854d6ecda388c7b3f73d00b3ec585e122e7cf799bc685d9364736f6c63430008180033","opcodes":"PUSH1 0xA0 DUP1 PUSH1 0x40 MSTORE CALLVALUE PUSH2 0x2F JUMPI PUSH1 0x1 PUSH1 0x0 SSTORE CALLER PUSH1 0x80 MSTORE PUSH2 0x81B SWAP1 DUP2 PUSH2 0x35 DUP3 CODECOPY PUSH1 0x80 MLOAD DUP2 DUP2 DUP2 PUSH2 0x220 ADD MSTORE PUSH2 0x433 ADD MSTORE RETURN JUMPDEST PUSH1 0x0 DUP1 REVERT INVALID PUSH1 0x40 PUSH1 0x80 DUP2 MSTORE PUSH1 0x4 DUP1 CALLDATASIZE LT ISZERO PUSH2 0x27 JUMPI JUMPDEST POP POP CALLDATASIZE ISZERO PUSH2 0x1D JUMPI PUSH1 0x0 DUP1 REVERT JUMPDEST PUSH2 0x25 PUSH2 0x679 JUMP JUMPDEST STOP JUMPDEST PUSH1 0x0 SWAP2 DUP3 CALLDATALOAD PUSH1 0xE0 SHR DUP1 PUSH4 0x7B18BDE EQ PUSH2 0x4B0 JUMPI DUP1 PUSH4 0x16C38B3C EQ PUSH2 0x412 JUMPI DUP1 PUSH4 0x1BEA8006 EQ PUSH2 0x3C9 JUMPI DUP1 PUSH4 0x44004CC1 EQ PUSH2 0x273 JUMPI DUP1 PUSH4 0x5C975ABB EQ PUSH2 0x24F JUMPI DUP1 PUSH4 0x8DA5CB5B EQ PUSH2 0x20B JUMPI DUP1 PUSH4 0x95270BA7 EQ PUSH2 0x1CF JUMPI DUP1 PUSH4 0x97FEB926 EQ PUSH2 0xC9 JUMPI PUSH4 0xDB6B5246 EQ PUSH2 0x97 JUMPI POP PUSH2 0x10 JUMP JUMPDEST DUP3 PUSH1 0x3 NOT CALLDATASIZE ADD SLT PUSH2 0xC5 JUMPI PUSH1 0xFF PUSH1 0x3 SLOAD AND PUSH2 0xB8 JUMPI DUP3 PUSH2 0xB5 PUSH2 0x679 JUMP JUMPDEST DUP1 RETURN JUMPDEST MLOAD PUSH4 0x36A7E2CD PUSH1 0xE2 SHL DUP2 MSTORE REVERT JUMPDEST DUP3 DUP1 REVERT JUMPDEST POP CALLVALUE PUSH2 0xC5 JUMPI DUP1 PUSH1 0x3 NOT CALLDATASIZE ADD SLT PUSH2 0xC5 JUMPI PUSH2 0xE2 PUSH2 0x5C4 JUMP JUMPDEST SWAP1 PUSH1 0x24 CALLDATALOAD SWAP2 PUSH1 0xFF PUSH1 0x3 SLOAD AND PUSH2 0x1BF JUMPI DUP3 ISZERO PUSH2 0x1AF JUMPI DUP2 MLOAD PUSH4 0x23B872DD PUSH1 0xE0 SHL PUSH1 0x20 DUP3 ADD MSTORE CALLER PUSH1 0x24 DUP3 ADD MSTORE ADDRESS PUSH1 0x44 DUP3 ADD MSTORE PUSH1 0x64 DUP1 DUP3 ADD DUP6 SWAP1 MSTORE DUP2 MSTORE PUSH1 0x1 PUSH1 0x1 PUSH1 0xA0 SHL SUB SWAP2 SWAP1 SWAP2 AND SWAP4 PUSH1 0xA0 DUP3 ADD SWAP1 PUSH8 0xFFFFFFFFFFFFFFFF DUP3 GT DUP4 DUP4 LT OR PUSH2 0x19C JUMPI POP DUP3 MSTORE PUSH2 0x14E SWAP1 DUP5 PUSH2 0x6FD JUMP JUMPDEST CALLER DUP5 MSTORE PUSH1 0x2 PUSH1 0x20 MSTORE DUP1 DUP5 KECCAK256 DUP4 DUP6 MSTORE PUSH1 0x20 MSTORE DUP1 DUP5 KECCAK256 PUSH2 0x16D DUP4 DUP3 SLOAD PUSH2 0x656 JUMP JUMPDEST SWAP1 SSTORE MLOAD SWAP1 DUP2 MSTORE PUSH32 0xF1444B5CAD7CE70CB018D1B8EDC8618FE303F3C7F034D8D572A6E27FACBF2BEF PUSH1 0x20 CALLER SWAP3 LOG3 DUP1 RETURN JUMPDEST PUSH4 0x4E487B71 PUSH1 0xE0 SHL DUP8 MSTORE PUSH1 0x41 SWAP1 MSTORE PUSH1 0x24 DUP7 REVERT JUMPDEST DUP2 MLOAD PUSH4 0x162908E3 PUSH1 0xE1 SHL DUP2 MSTORE DUP5 SWAP1 REVERT JUMPDEST DUP2 MLOAD PUSH4 0x36A7E2CD PUSH1 0xE2 SHL DUP2 MSTORE DUP5 SWAP1 REVERT JUMPDEST DUP4 DUP3 CALLVALUE PUSH2 0x207 JUMPI PUSH1 0x20 CALLDATASIZE PUSH1 0x3 NOT ADD SLT PUSH2 0x207 JUMPI PUSH1 0x20 SWAP2 DUP2 SWAP1 PUSH1 0x1 PUSH1 0x1 PUSH1 0xA0 SHL SUB PUSH2 0x1F7 PUSH2 0x5C4 JUMP JUMPDEST AND DUP2 MSTORE PUSH1 0x1 DUP5 MSTORE KECCAK256 SLOAD SWAP1 MLOAD SWAP1 DUP2 MSTORE RETURN JUMPDEST POP DUP1 REVERT JUMPDEST DUP4 DUP3 CALLVALUE PUSH2 0x207 JUMPI DUP2 PUSH1 0x3 NOT CALLDATASIZE ADD SLT PUSH2 0x207 JUMPI MLOAD PUSH32 0x0 PUSH1 0x1 PUSH1 0x1 PUSH1 0xA0 SHL SUB AND DUP2 MSTORE PUSH1 0x20 SWAP1 RETURN JUMPDEST DUP4 DUP3 CALLVALUE PUSH2 0x207 JUMPI DUP2 PUSH1 0x3 NOT CALLDATASIZE ADD SLT PUSH2 0x207 JUMPI PUSH1 0x20 SWAP1 PUSH1 0xFF PUSH1 0x3 SLOAD AND SWAP1 MLOAD SWAP1 ISZERO ISZERO DUP2 MSTORE RETURN JUMPDEST POP CALLVALUE PUSH2 0xC5 JUMPI PUSH1 0x60 CALLDATASIZE PUSH1 0x3 NOT ADD SLT PUSH2 0xC5 JUMPI PUSH2 0x28D PUSH2 0x5C4 JUMP JUMPDEST SWAP1 PUSH2 0x296 PUSH2 0x5DF JUMP JUMPDEST PUSH1 0x44 CALLDATALOAD SWAP2 PUSH2 0x2A2 PUSH2 0x6DA JUMP JUMPDEST PUSH1 0xFF PUSH1 0x3 SLOAD AND PUSH2 0x3BA JUMPI PUSH1 0x1 PUSH1 0x1 PUSH1 0xA0 SHL SUB SWAP2 DUP3 AND SWAP5 DUP6 ISZERO PUSH2 0x3AC JUMPI DUP4 ISZERO PUSH2 0x39E JUMPI CALLER DUP8 MSTORE PUSH1 0x20 SWAP3 PUSH1 0x2 DUP5 MSTORE DUP3 DUP9 KECCAK256 SWAP6 AND SWAP5 DUP6 DUP9 MSTORE DUP4 MSTORE DUP2 DUP8 KECCAK256 SLOAD DUP5 DUP2 LT PUSH2 0x383 JUMPI DUP5 SWAP1 CALLER DUP10 MSTORE PUSH1 0x2 DUP6 MSTORE DUP4 DUP10 KECCAK256 DUP8 DUP11 MSTORE DUP6 MSTORE SUB DUP3 DUP9 KECCAK256 SSTORE DUP2 MLOAD SWAP1 PUSH4 0xA9059CBB PUSH1 0xE0 SHL DUP5 DUP4 ADD MSTORE DUP7 PUSH1 0x24 DUP4 ADD MSTORE DUP5 PUSH1 0x44 DUP4 ADD MSTORE PUSH1 0x44 DUP3 MSTORE PUSH1 0x80 DUP3 ADD SWAP1 DUP3 DUP3 LT PUSH8 0xFFFFFFFFFFFFFFFF DUP4 GT OR PUSH2 0x370 JUMPI POP DUP3 SWAP2 PUSH2 0x362 SWAP2 PUSH32 0xF398D9DF386B57EBD82915250392590009E26DDACBED7A8C50A6016CC83D785C SWAP6 SWAP5 MSTORE DUP7 PUSH2 0x6FD JUMP JUMPDEST MLOAD SWAP3 DUP4 MSTORE CALLER SWAP3 LOG4 PUSH1 0x1 DUP2 SSTORE DUP1 RETURN JUMPDEST PUSH4 0x4E487B71 PUSH1 0xE0 SHL DUP10 MSTORE PUSH1 0x41 SWAP1 MSTORE PUSH1 0x24 DUP9 REVERT JUMPDEST DUP5 SWAP1 PUSH1 0x44 SWAP4 MLOAD SWAP3 PUSH4 0xCF479181 PUSH1 0xE0 SHL DUP5 MSTORE DUP4 ADD MSTORE PUSH1 0x24 DUP3 ADD MSTORE REVERT JUMPDEST SWAP1 MLOAD PUSH4 0x162908E3 PUSH1 0xE1 SHL DUP2 MSTORE REVERT JUMPDEST SWAP1 MLOAD PUSH4 0x4E469669 PUSH1 0xE1 SHL DUP2 MSTORE REVERT JUMPDEST MLOAD PUSH4 0x36A7E2CD PUSH1 0xE2 SHL DUP2 MSTORE DUP5 SWAP1 REVERT JUMPDEST DUP4 DUP3 CALLVALUE PUSH2 0x207 JUMPI DUP1 PUSH1 0x3 NOT CALLDATASIZE ADD SLT PUSH2 0x207 JUMPI DUP1 PUSH1 0x20 SWAP3 PUSH2 0x3E7 PUSH2 0x5C4 JUMP JUMPDEST PUSH2 0x3EF PUSH2 0x5DF JUMP JUMPDEST PUSH1 0x1 PUSH1 0x1 PUSH1 0xA0 SHL SUB SWAP2 DUP3 AND DUP4 MSTORE PUSH1 0x2 DUP7 MSTORE DUP4 DUP4 KECCAK256 SWAP2 AND DUP3 MSTORE DUP5 MSTORE KECCAK256 SLOAD SWAP1 MLOAD SWAP1 DUP2 MSTORE RETURN JUMPDEST POP CALLVALUE PUSH2 0xC5 JUMPI PUSH1 0x20 CALLDATASIZE PUSH1 0x3 NOT ADD SLT PUSH2 0xC5 JUMPI DUP2 CALLDATALOAD SWAP2 DUP3 ISZERO ISZERO DUP1 SWAP4 SUB PUSH2 0x4AC JUMPI PUSH32 0x0 PUSH1 0x1 PUSH1 0x1 PUSH1 0xA0 SHL SUB AND CALLER SUB PUSH2 0x49E JUMPI POP PUSH32 0x9077D36BC00859B5C3F320310707208543DD35092CB0A0FE117D0C6A558B148B SWAP2 PUSH1 0x20 SWAP2 PUSH1 0xFF NOT PUSH1 0x3 SLOAD AND PUSH1 0xFF DUP4 AND OR PUSH1 0x3 SSTORE MLOAD SWAP1 DUP2 MSTORE LOG1 DUP1 RETURN JUMPDEST SWAP1 MLOAD PUSH4 0x30CD7471 PUSH1 0xE0 SHL DUP2 MSTORE REVERT JUMPDEST DUP4 DUP1 REVERT JUMPDEST POP SWAP1 CALLVALUE PUSH2 0xC5 JUMPI DUP2 PUSH1 0x3 NOT CALLDATASIZE ADD SLT PUSH2 0xC5 JUMPI DUP1 CALLDATALOAD PUSH1 0x1 PUSH1 0x1 PUSH1 0xA0 SHL SUB DUP2 AND SWAP3 SWAP1 DUP4 SWAP1 SUB PUSH2 0x4AC JUMPI PUSH1 0x24 CALLDATALOAD SWAP2 PUSH2 0x4E3 PUSH2 0x6DA JUMP JUMPDEST PUSH1 0xFF PUSH1 0x3 SLOAD AND PUSH2 0x5B6 JUMPI DUP4 ISZERO PUSH2 0x3AC JUMPI DUP3 ISZERO PUSH2 0x39E JUMPI CALLER DUP6 MSTORE PUSH1 0x1 PUSH1 0x20 MSTORE DUP2 DUP6 KECCAK256 SLOAD DUP4 DUP2 LT PUSH2 0x59B JUMPI DUP4 SWAP1 CALLER DUP8 MSTORE PUSH1 0x1 PUSH1 0x20 MSTORE SUB DUP3 DUP7 KECCAK256 SSTORE DUP5 DUP1 DUP1 DUP1 DUP7 DUP9 GAS CALL PUSH2 0x52B PUSH2 0x5F5 JUMP JUMPDEST POP ISZERO PUSH2 0x563 JUMPI POP MLOAD SWAP1 DUP2 MSTORE PUSH32 0x25F87458C8909458F30B44F37F5AC9C2BF509C221E295FCC65A0C7E013509AEE PUSH1 0x20 CALLER SWAP3 LOG3 PUSH1 0x1 DUP2 SSTORE DUP1 RETURN JUMPDEST PUSH1 0x20 PUSH1 0x64 SWAP3 MLOAD SWAP2 PUSH3 0x461BCD PUSH1 0xE5 SHL DUP4 MSTORE DUP3 ADD MSTORE PUSH1 0x13 PUSH1 0x24 DUP3 ADD MSTORE PUSH19 0x1353D3881D1C985B9CD9995C8819985A5B1959 PUSH1 0x6A SHL PUSH1 0x44 DUP3 ADD MSTORE REVERT JUMPDEST PUSH1 0x44 SWAP4 SWAP2 SWAP3 MLOAD SWAP3 PUSH4 0xCF479181 PUSH1 0xE0 SHL DUP5 MSTORE DUP4 ADD MSTORE PUSH1 0x24 DUP3 ADD MSTORE REVERT JUMPDEST SWAP1 MLOAD PUSH4 0x36A7E2CD PUSH1 0xE2 SHL DUP2 MSTORE REVERT JUMPDEST PUSH1 0x4 CALLDATALOAD SWAP1 PUSH1 0x1 PUSH1 0x1 PUSH1 0xA0 SHL SUB DUP3 AND DUP3 SUB PUSH2 0x5DA JUMPI JUMP JUMPDEST PUSH1 0x0 DUP1 REVERT JUMPDEST PUSH1 0x24 CALLDATALOAD SWAP1 PUSH1 0x1 PUSH1 0x1 PUSH1 0xA0 SHL SUB DUP3 AND DUP3 SUB PUSH2 0x5DA JUMPI JUMP JUMPDEST RETURNDATASIZE ISZERO PUSH2 0x651 JUMPI PUSH8 0xFFFFFFFFFFFFFFFF SWAP1 RETURNDATASIZE DUP3 DUP2 GT PUSH2 0x63B JUMPI PUSH1 0x40 MLOAD SWAP3 PUSH1 0x1F DUP3 ADD PUSH1 0x1F NOT SWAP1 DUP2 AND PUSH1 0x3F ADD AND DUP5 ADD SWAP1 DUP2 GT DUP5 DUP3 LT OR PUSH2 0x63B JUMPI PUSH1 0x40 MSTORE DUP3 MSTORE RETURNDATASIZE PUSH1 0x0 PUSH1 0x20 DUP5 ADD RETURNDATACOPY JUMP JUMPDEST PUSH4 0x4E487B71 PUSH1 0xE0 SHL PUSH1 0x0 MSTORE PUSH1 0x41 PUSH1 0x4 MSTORE PUSH1 0x24 PUSH1 0x0 REVERT JUMPDEST PUSH1 0x60 SWAP1 JUMP JUMPDEST SWAP2 SWAP1 DUP3 ADD DUP1 SWAP3 GT PUSH2 0x663 JUMPI JUMP JUMPDEST PUSH4 0x4E487B71 PUSH1 0xE0 SHL PUSH1 0x0 MSTORE PUSH1 0x11 PUSH1 0x4 MSTORE PUSH1 0x24 PUSH1 0x0 REVERT JUMPDEST CALLVALUE ISZERO PUSH2 0x6C8 JUMPI CALLER PUSH1 0x0 MSTORE PUSH1 0x1 PUSH1 0x20 MSTORE PUSH1 0x40 PUSH1 0x0 KECCAK256 PUSH2 0x698 CALLVALUE DUP3 SLOAD PUSH2 0x656 JUMP JUMPDEST SWAP1 SSTORE PUSH1 0x40 MLOAD CALLVALUE DUP2 MSTORE PUSH32 0xB5D7700FB0CF415158B8DB7CC7C39F0EAB16A825C92E221404B4C8BB099B4BBB PUSH1 0x20 CALLER SWAP3 LOG2 JUMP JUMPDEST PUSH1 0x40 MLOAD PUSH4 0x162908E3 PUSH1 0xE1 SHL DUP2 MSTORE PUSH1 0x4 SWAP1 REVERT JUMPDEST PUSH1 0x2 PUSH1 0x0 SLOAD EQ PUSH2 0x6EB JUMPI PUSH1 0x2 PUSH1 0x0 SSTORE JUMP JUMPDEST PUSH1 0x40 MLOAD PUSH4 0x3EE5AEB5 PUSH1 0xE0 SHL DUP2 MSTORE PUSH1 0x4 SWAP1 REVERT JUMPDEST PUSH1 0x1 DUP1 PUSH1 0xA0 SHL SUB AND SWAP1 PUSH2 0x727 PUSH1 0x0 DUP1 DUP4 PUSH1 0x20 DUP3 SWAP6 MLOAD SWAP2 ADD DUP3 DUP8 GAS CALL PUSH2 0x720 PUSH2 0x5F5 JUMP JUMPDEST SWAP1 DUP5 PUSH2 0x782 JUMP JUMPDEST SWAP1 DUP2 MLOAD SWAP2 DUP3 ISZERO ISZERO SWAP3 DUP4 PUSH2 0x757 JUMPI JUMPDEST POP POP POP PUSH2 0x73F JUMPI POP JUMP JUMPDEST PUSH1 0x24 SWAP1 PUSH1 0x40 MLOAD SWAP1 PUSH4 0x5274AFE7 PUSH1 0xE0 SHL DUP3 MSTORE PUSH1 0x4 DUP3 ADD MSTORE REVERT JUMPDEST DUP2 SWAP3 SWAP4 POP SWAP1 PUSH1 0x20 SWAP2 DUP2 ADD SUB SLT PUSH2 0x207 JUMPI PUSH1 0x20 ADD MLOAD SWAP1 DUP2 ISZERO SWAP2 DUP3 ISZERO SUB PUSH2 0x77F JUMPI POP CODESIZE DUP1 DUP1 PUSH2 0x735 JUMP JUMPDEST DUP1 REVERT JUMPDEST SWAP1 PUSH2 0x7A9 JUMPI POP DUP1 MLOAD ISZERO PUSH2 0x797 JUMPI DUP1 MLOAD SWAP1 PUSH1 0x20 ADD REVERT JUMPDEST PUSH1 0x40 MLOAD PUSH4 0xA12F521 PUSH1 0xE1 SHL DUP2 MSTORE PUSH1 0x4 SWAP1 REVERT JUMPDEST DUP2 MLOAD ISZERO DUP1 PUSH2 0x7DC JUMPI JUMPDEST PUSH2 0x7BA JUMPI POP SWAP1 JUMP JUMPDEST PUSH1 0x40 MLOAD PUSH4 0x9996B315 PUSH1 0xE0 SHL DUP2 MSTORE PUSH1 0x1 PUSH1 0x1 PUSH1 0xA0 SHL SUB SWAP1 SWAP2 AND PUSH1 0x4 DUP3 ADD MSTORE PUSH1 0x24 SWAP1 REVERT JUMPDEST POP DUP1 EXTCODESIZE ISZERO PUSH2 0x7B2 JUMP INVALID LOG2 PUSH5 0x6970667358 0x22 SLT KECCAK256 0xEF MSTORE8 DUP16 0xD7 SELFDESTRUCT RETURN LOG4 DUP8 DUP6 0x4D PUSH15 0xCDA388C7B3F73D00B3EC585E122E7C 0xF7 SWAP10 0xBC PUSH9 0x5D9364736F6C634300 ADDMOD XOR STOP CALLER "},"methodIdentifiers":{"depositERC20(address,uint256)":"97feb926","depositNative()":"db6b5246","nativeBalanceOf(address)":"95270ba7","owner()":"8da5cb5b","paused()":"5c975abb","setPaused(bool)":"16c38b3c","tokenBalanceOf(address,address)":"1bea8006","withdrawERC20(address,address,uint256)":"44004cc1","withdrawNative(address,uint256)":"07b18bde"}}}}}