{"contracts/AlertOracle.sol":{"AlertOracle":{"abi":[{"inputs":[{"internalType":"address","name":"initialVerifier","type":"address"}],"stateMutability":"nonpayable","type":"constructor"},{"inputs":[],"name":"ECDSAInvalidSignature","type":"error"},{"inputs":[{"internalType":"uint256","name":"length","type":"uint256"}],"name":"ECDSAInvalidSignatureLength","type":"error"},{"inputs":[{"internalType":"bytes32","name":"s","type":"bytes32"}],"name":"ECDSAInvalidSignatureS","type":"error"},{"inputs":[{"internalType":"uint256","name":"expected","type":"uint256"},{"internalType":"uint256","name":"provided","type":"uint256"}],"name":"InvalidNonce","type":"error"},{"inputs":[],"name":"InvalidShortString","type":"error"},{"inputs":[{"internalType":"address","name":"signer","type":"address"}],"name":"NotAVerifier","type":"error"},{"inputs":[{"internalType":"address","name":"owner","type":"address"}],"name":"OwnableInvalidOwner","type":"error"},{"inputs":[{"internalType":"address","name":"account","type":"address"}],"name":"OwnableUnauthorizedAccount","type":"error"},{"inputs":[{"internalType":"uint8","name":"score","type":"uint8"}],"name":"ScoreOutOfRange","type":"error"},{"inputs":[{"internalType":"uint256","name":"deadline","type":"uint256"}],"name":"SignatureExpired","type":"error"},{"inputs":[{"internalType":"string","name":"str","type":"string"}],"name":"StringTooLong","type":"error"},{"anonymous":false,"inputs":[],"name":"EIP712DomainChanged","type":"event"},{"anonymous":false,"inputs":[{"indexed":true,"internalType":"address","name":"previousOwner","type":"address"},{"indexed":true,"internalType":"address","name":"newOwner","type":"address"}],"name":"OwnershipTransferred","type":"event"},{"anonymous":false,"inputs":[{"indexed":true,"internalType":"address","name":"contractAddress","type":"address"},{"indexed":false,"internalType":"uint8","name":"score","type":"uint8"},{"indexed":false,"internalType":"string","name":"label","type":"string"},{"indexed":false,"internalType":"uint256","name":"updatedAt","type":"uint256"},{"indexed":true,"internalType":"address","name":"updatedBy","type":"address"},{"indexed":false,"internalType":"uint256","name":"nonce","type":"uint256"}],"name":"ScoreUpdated","type":"event"},{"anonymous":false,"inputs":[{"indexed":true,"internalType":"address","name":"verifier","type":"address"},{"indexed":false,"internalType":"bool","name":"enabled","type":"bool"}],"name":"VerifierSet","type":"event"},{"inputs":[],"name":"domainSeparator","outputs":[{"internalType":"bytes32","name":"","type":"bytes32"}],"stateMutability":"view","type":"function"},{"inputs":[],"name":"eip712Domain","outputs":[{"internalType":"bytes1","name":"fields","type":"bytes1"},{"internalType":"string","name":"name","type":"string"},{"internalType":"string","name":"version","type":"string"},{"internalType":"uint256","name":"chainId","type":"uint256"},{"internalType":"address","name":"verifyingContract","type":"address"},{"internalType":"bytes32","name":"salt","type":"bytes32"},{"internalType":"uint256[]","name":"extensions","type":"uint256[]"}],"stateMutability":"view","type":"function"},{"inputs":[{"internalType":"address","name":"","type":"address"}],"name":"isVerifier","outputs":[{"internalType":"bool","name":"","type":"bool"}],"stateMutability":"view","type":"function"},{"inputs":[{"internalType":"address","name":"","type":"address"}],"name":"nonces","outputs":[{"internalType":"uint256","name":"","type":"uint256"}],"stateMutability":"view","type":"function"},{"inputs":[],"name":"owner","outputs":[{"internalType":"address","name":"","type":"address"}],"stateMutability":"view","type":"function"},{"inputs":[],"name":"renounceOwnership","outputs":[],"stateMutability":"nonpayable","type":"function"},{"inputs":[{"internalType":"address","name":"","type":"address"}],"name":"scores","outputs":[{"internalType":"uint8","name":"score","type":"uint8"},{"internalType":"string","name":"label","type":"string"},{"internalType":"uint256","name":"updatedAt","type":"uint256"},{"internalType":"address","name":"updatedBy","type":"address"}],"stateMutability":"view","type":"function"},{"inputs":[{"internalType":"address","name":"verifier","type":"address"},{"internalType":"bool","name":"enabled","type":"bool"}],"name":"setVerifier","outputs":[],"stateMutability":"nonpayable","type":"function"},{"inputs":[{"internalType":"address","name":"newOwner","type":"address"}],"name":"transferOwnership","outputs":[],"stateMutability":"nonpayable","type":"function"},{"inputs":[{"internalType":"address","name":"contractAddress","type":"address"},{"internalType":"uint8","name":"score","type":"uint8"},{"internalType":"string","name":"label","type":"string"},{"internalType":"uint256","name":"nonce","type":"uint256"},{"internalType":"uint256","name":"deadline","type":"uint256"},{"internalType":"bytes","name":"signature","type":"bytes"}],"name":"updateScoreWithProof","outputs":[],"stateMutability":"nonpayable","type":"function"}],"evm":{"bytecode":{"linkReferences":{},"object":"610160346200025e576001600160401b0390601f6200158738819003918201601f1916830191848311848410176200024857808492604094855283396020938491810103126200025e57516001600160a01b039190828116908190036200025e578151926200006e8462000263565b60168452848401947f436861696e57617463682e416c6572744f7261636c65000000000000000000008652835196620000a78862000263565b60018852818801603160f81b8152620000c0876200027f565b97610120988952620000d28a62000452565b97610140988952519020988960e05251902061010098818a524660a052865191848301917f8b73c3c69bb8fe3d512ecc4cf759cc79239f7b179b0ffacaa9a75d522b39400f83528884015260608301524660808301523060a083015260a0825260c0820192828410908411176200024857828752815190206080523060c05233156200023157505060028054336001600160a01b031982168117909255855193167f8be0079c531659141344cd1fd0a4f28419497f9722a3daafe3b4186f6b6457e0600080a382620001ea575b5050505191610f87938462000600853960805184610b49015260a05184610c15015260c05184610b13015260e05184610b9801525183610bbe015251826106ac015251816106d50152f35b7f7a6dd775b9b6aa6ebde6f0c51172ef328eb9658e095364751705f28234e7257c91836000526004825284600020600160ff1982541617905560018152a23880806200019f565b631e4fbdf760e01b8252600060c490910152602490fd5b634e487b7160e01b600052604160045260246000fd5b600080fd5b604081019081106001600160401b038211176200024857604052565b805160209190828110156200031e575090601f825111620002bd5780825192015190808310620002ae57501790565b82600019910360031b1b161790565b90604051809263305a27a960e01b82528060048301528251908160248401526000935b82851062000304575050604492506000838284010152601f80199101168101030190fd5b8481018201518686016044015293810193859350620002e0565b6001600160401b03811162000248576000928354926001938481811c9116801562000447575b838210146200043357601f8111620003fd575b5081601f841160011462000396575092829391839286946200038a575b50501b916000199060031b1c191617905560ff90565b01519250388062000374565b919083601f1981168780528488209488905b88838310620003e25750505010620003c8575b505050811b01905560ff90565b015160001960f88460031b161c19169055388080620003bb565b858701518855909601959485019487935090810190620003a8565b85805284601f848820920160051c820191601f860160051c015b8281106200042757505062000357565b87815501859062000417565b634e487b7160e01b86526022600452602486fd5b90607f169062000344565b805160209081811015620004e05750601f8251116200047f5780825192015190808310620002ae57501790565b90604051809263305a27a960e01b82528060048301528251908160248401526000935b828510620004c6575050604492506000838284010152601f80199101168101030190fd5b8481018201518686016044015293810193859350620004a2565b9192916001600160401b038111620002485760019182548381811c91168015620005f4575b82821014620005de57601f8111620005a5575b5080601f8311600114620005585750819293946000926200054c575b5050600019600383901b1c191690821b17905560ff90565b01519050388062000534565b90601f198316958460005282600020926000905b8882106200058d5750508385969710620003c857505050811b01905560ff90565b8087859682949686015181550195019301906200056c565b8360005283601f83600020920160051c820191601f850160051c015b828110620005d157505062000518565b60008155018490620005c1565b634e487b7160e01b600052602260045260246000fd5b90607f16906200050556fe608080604052600436101561001357600080fd5b60003560e01c908163331052181461096657508063715018a61461090957806376dd110f146107f15780637ecebe00146107b757806384b0196e146106965780638da5cb5b1461066d578063ac9b5671146105ee578063b23881e514610143578063f2fde38b146100b55763f698da251461008d57600080fd5b346100b05760003660031901126100b05760206100a8610b10565b604051908152f35b600080fd5b346100b05760203660031901126100b0576100ce6109a1565b6100d6610ae4565b6001600160a01b0390811690811561012a57600254826bffffffffffffffffffffffff60a01b821617600255167f8be0079c531659141344cd1fd0a4f28419497f9722a3daafe3b4186f6b6457e0600080a3005b604051631e4fbdf760e01b815260006004820152602490fd5b346100b05760c03660031901126100b05761015c6109a1565b602480359060ff821682036100b05760443567ffffffffffffffff81116100b05761018b903690600401610a6f565b929060843560a43567ffffffffffffffff81116100b0576101b0903690600401610a6f565b91606460ff8616116105d4578042116105bd576101ce368886610a9d565b60208151910120906040519060208201927ffd42a75b0c55ba7b0f8018fa1418ea8ebdc58c60255e2630dd39bfe56399c5d7845260018060a01b038b16604084015260ff88166060840152608083015260643560a083015260c082015260c0815260e0810181811067ffffffffffffffff8211176105a85792604261029395936102849361028a96604052519020610264610b10565b906040519161190160f01b83526002830152602282015220923691610a9d565b90610e00565b90929192610e3c565b6001600160a01b031660008181526004602052604090205460ff1615610591578060005260056020526040600020546064358103610570575060005260056020526001606435016040600020556040516080810181811067ffffffffffffffff82111761055b5760405260ff8316815261030e368684610a9d565b6020820190815242604083015233606083015260018060a01b038716600052600360205260406000209060ff83511660ff198354161782555180519567ffffffffffffffff87116105475750908693929161036c60018301546109b7565b601f81116104ee575b50602090601f8811600114610457579680600393927f13426932ac9f192f017f3996a9d0cbc26a7a95a0d1bb961c100cbb2748ddfe709960009261044c575b505060001982851b1c1916600191821b17908201555b604083015160028201550190606060018060a01b03910151166bffffffffffffffffffffffff60a01b82541617905560ff604051931683526080602084015281608084015260a0830137600060a0848301810191909152426040830152606435606083015233946001600160a01b031693601f01601f191682018290030190a3005b015190508b806103b4565b96906001830160005260206000209760005b601f19841681106104d35750917f13426932ac9f192f017f3996a9d0cbc26a7a95a0d1bb961c100cbb2748ddfe70986001926003959483601f198116106104bb575b505050811b0160018201556103ca565b015160001983871b60f8161c191690558b80806104ab565b828201518a556001909901988a975060209283019201610469565b909192939450600183016000526020600020601f880160051c810160208910610540575b90899695949392915b601f830160051c82018110610531575050610375565b600081558a975060010161051b565b5080610512565b634e487b7160e01b60009081526041600452fd5b84634e487b7160e01b60005260416004526000fd5b6040516306427aeb60e01b8152600481019190915260643581860152604490fd5b839060405190631606811f60e21b82526004820152fd5b87634e487b7160e01b60005260416004526000fd5b85906040519063cd21db4f60e01b82526004820152fd5b604051632d6270c560e21b815260ff861660048201528690fd5b346100b05760403660031901126100b0576106076109a1565b602435908115158092036100b05760207f7a6dd775b9b6aa6ebde6f0c51172ef328eb9658e095364751705f28234e7257c91610641610ae4565b60018060a01b0316928360005260048252604060002060ff1981541660ff8316179055604051908152a2005b346100b05760003660031901126100b0576002546040516001600160a01b039091168152602090f35b346100b05760003660031901126100b0576106d07f0000000000000000000000000000000000000000000000000000000000000000610c3b565b6106f97f0000000000000000000000000000000000000000000000000000000000000000610d3f565b60405160208082019282841067ffffffffffffffff8511176107a1579160206107548594610746979660405260008452604051978897600f60f81b895260e0858a015260e0890190610a2f565b908782036040890152610a2f565b91466060870152306080870152600060a087015285830360c0870152519182815201929160005b82811061078a57505050500390f35b83518552869550938101939281019260010161077b565b634e487b7160e01b600052604160045260246000fd5b346100b05760203660031901126100b0576001600160a01b036107d86109a1565b1660005260056020526020604060002054604051908152f35b346100b0576020806003193601126100b0576001600160a01b03806108146109a1565b166000526003825260406000208260ff82541692600180840190604051938492600092815491610843836109b7565b80875292600181169081156108e757506001146108a1575b50505050610892929161086f910384610a0d565b600360028501549401541691608060405196879687528601526080850190610a2f565b91604084015260608301520390f35b60009081528381209695945091905b8183106108cf5750939450919250908201018661086f6108928a61085b565b865488840185015295860195879450918301916108b0565b60ff191685880152505050151560051b83010190508661086f6108928a61085b565b346100b05760003660031901126100b057610922610ae4565b600280546001600160a01b031981169091556000906001600160a01b03167f8be0079c531659141344cd1fd0a4f28419497f9722a3daafe3b4186f6b6457e08280a3005b346100b05760203660031901126100b0576020906001600160a01b0361098a6109a1565b166000526004825260ff6040600020541615158152f35b600435906001600160a01b03821682036100b057565b90600182811c921680156109e7575b60208310146109d157565b634e487b7160e01b600052602260045260246000fd5b91607f16916109c6565b6040810190811067ffffffffffffffff8211176107a157604052565b90601f8019910116810190811067ffffffffffffffff8211176107a157604052565b919082519283825260005b848110610a5b575050826000602080949584010152601f8019910116010190565b602081830181015184830182015201610a3a565b9181601f840112156100b05782359167ffffffffffffffff83116100b057602083818601950101116100b057565b92919267ffffffffffffffff82116107a15760405191610ac7601f8201601f191660200184610a0d565b8294818452818301116100b0578281602093846000960137010152565b6002546001600160a01b03163303610af857565b60405163118cdaa760e01b8152336004820152602490fd5b307f00000000000000000000000000000000000000000000000000000000000000006001600160a01b03161480610c12575b15610b6b577f000000000000000000000000000000000000000000000000000000000000000090565b60405160208101907f8b73c3c69bb8fe3d512ecc4cf759cc79239f7b179b0ffacaa9a75d522b39400f82527f000000000000000000000000000000000000000000000000000000000000000060408201527f000000000000000000000000000000000000000000000000000000000000000060608201524660808201523060a082015260a0815260c0810181811067ffffffffffffffff8211176107a15760405251902090565b507f00000000000000000000000000000000000000000000000000000000000000004614610b42565b60ff8114610c795760ff811690601f8211610c675760405191610c5d836109f1565b8252602082015290565b604051632cd44ac360e21b8152600490fd5b5060405160008160005491610c8d836109b7565b80835292602090600190818116908115610d1b5750600114610cbb575b5050610cb892500382610a0d565b90565b915092600080527f290decd9548b62a8d60345a988386fc84ba6bc95484008f6362f93160ef3e563936000925b828410610d035750610cb89450505081016020013880610caa565b85548785018301529485019486945092810192610ce8565b91505060209250610cb894915060ff191682840152151560051b8201013880610caa565b60ff8114610d615760ff811690601f8211610c675760405191610c5d836109f1565b50604051600081600191600154610d77816109b7565b8084529360209160018116908115610d1b5750600114610d9f575050610cb892500382610a0d565b91509260016000527fb10e2d527612073b26eecdfd717e6a320cf44b4afac2b0732d9fcbe2b7fa0cf6936000925b828410610de85750610cb89450505081016020013880610caa565b85548785018301529485019486945092810192610dcd565b8151919060418303610e3157610e2a92506020820151906060604084015193015160001a90610ec1565b9192909190565b505060009160029190565b6004811015610eab5780610e4e575050565b60018103610e685760405163f645eedf60e01b8152600490fd5b60028103610e895760405163fce698f760e01b815260048101839052602490fd5b600314610e935750565b602490604051906335e2f38360e21b82526004820152fd5b634e487b7160e01b600052602160045260246000fd5b91907f7fffffffffffffffffffffffffffffff5d576e7357a4501ddfe92f46681b20a08411610f4557926020929160ff608095604051948552168484015260408301526060820152600092839182805260015afa15610f395780516001600160a01b03811615610f3057918190565b50809160019190565b604051903d90823e3d90fd5b5050506000916003919056fea26469706673582212201fbbbe28ce80e7bb6ad950be95f284cc5f427b62556745be4f3bd780f7b9db7664736f6c63430008180033","opcodes":"PUSH2 0x160 CALLVALUE PUSH3 0x25E JUMPI PUSH1 0x1 PUSH1 0x1 PUSH1 0x40 SHL SUB SWAP1 PUSH1 0x1F PUSH3 0x1587 CODESIZE DUP2 SWAP1 SUB SWAP2 DUP3 ADD PUSH1 0x1F NOT AND DUP4 ADD SWAP2 DUP5 DUP4 GT DUP5 DUP5 LT OR PUSH3 0x248 JUMPI DUP1 DUP5 SWAP3 PUSH1 0x40 SWAP5 DUP6 MSTORE DUP4 CODECOPY PUSH1 0x20 SWAP4 DUP5 SWAP2 DUP2 ADD SUB SLT PUSH3 0x25E JUMPI MLOAD PUSH1 0x1 PUSH1 0x1 PUSH1 0xA0 SHL SUB SWAP2 SWAP1 DUP3 DUP2 AND SWAP1 DUP2 SWAP1 SUB PUSH3 0x25E JUMPI DUP2 MLOAD SWAP3 PUSH3 0x6E DUP5 PUSH3 0x263 JUMP JUMPDEST PUSH1 0x16 DUP5 MSTORE DUP5 DUP5 ADD SWAP5 PUSH32 0x436861696E57617463682E416C6572744F7261636C6500000000000000000000 DUP7 MSTORE DUP4 MLOAD SWAP7 PUSH3 0xA7 DUP9 PUSH3 0x263 JUMP JUMPDEST PUSH1 0x1 DUP9 MSTORE DUP2 DUP9 ADD PUSH1 0x31 PUSH1 0xF8 SHL DUP2 MSTORE PUSH3 0xC0 DUP8 PUSH3 0x27F JUMP JUMPDEST SWAP8 PUSH2 0x120 SWAP9 DUP10 MSTORE PUSH3 0xD2 DUP11 PUSH3 0x452 JUMP JUMPDEST SWAP8 PUSH2 0x140 SWAP9 DUP10 MSTORE MLOAD SWAP1 KECCAK256 SWAP9 DUP10 PUSH1 0xE0 MSTORE MLOAD SWAP1 KECCAK256 PUSH2 0x100 SWAP9 DUP2 DUP11 MSTORE CHAINID PUSH1 0xA0 MSTORE DUP7 MLOAD SWAP2 DUP5 DUP4 ADD SWAP2 PUSH32 0x8B73C3C69BB8FE3D512ECC4CF759CC79239F7B179B0FFACAA9A75D522B39400F DUP4 MSTORE DUP9 DUP5 ADD MSTORE PUSH1 0x60 DUP4 ADD MSTORE CHAINID PUSH1 0x80 DUP4 ADD MSTORE ADDRESS PUSH1 0xA0 DUP4 ADD MSTORE PUSH1 0xA0 DUP3 MSTORE PUSH1 0xC0 DUP3 ADD SWAP3 DUP3 DUP5 LT SWAP1 DUP5 GT OR PUSH3 0x248 JUMPI DUP3 DUP8 MSTORE DUP2 MLOAD SWAP1 KECCAK256 PUSH1 0x80 MSTORE ADDRESS PUSH1 0xC0 MSTORE CALLER ISZERO PUSH3 0x231 JUMPI POP POP PUSH1 0x2 DUP1 SLOAD CALLER PUSH1 0x1 PUSH1 0x1 PUSH1 0xA0 SHL SUB NOT DUP3 AND DUP2 OR SWAP1 SWAP3 SSTORE DUP6 MLOAD SWAP4 AND PUSH32 0x8BE0079C531659141344CD1FD0A4F28419497F9722A3DAAFE3B4186F6B6457E0 PUSH1 0x0 DUP1 LOG3 DUP3 PUSH3 0x1EA JUMPI JUMPDEST POP POP POP MLOAD SWAP2 PUSH2 0xF87 SWAP4 DUP5 PUSH3 0x600 DUP6 CODECOPY PUSH1 0x80 MLOAD DUP5 PUSH2 0xB49 ADD MSTORE PUSH1 0xA0 MLOAD DUP5 PUSH2 0xC15 ADD MSTORE PUSH1 0xC0 MLOAD DUP5 PUSH2 0xB13 ADD MSTORE PUSH1 0xE0 MLOAD DUP5 PUSH2 0xB98 ADD MSTORE MLOAD DUP4 PUSH2 0xBBE ADD MSTORE MLOAD DUP3 PUSH2 0x6AC ADD MSTORE MLOAD DUP2 PUSH2 0x6D5 ADD MSTORE RETURN JUMPDEST PUSH32 0x7A6DD775B9B6AA6EBDE6F0C51172EF328EB9658E095364751705F28234E7257C SWAP2 DUP4 PUSH1 0x0 MSTORE PUSH1 0x4 DUP3 MSTORE DUP5 PUSH1 0x0 KECCAK256 PUSH1 0x1 PUSH1 0xFF NOT DUP3 SLOAD AND OR SWAP1 SSTORE PUSH1 0x1 DUP2 MSTORE LOG2 CODESIZE DUP1 DUP1 PUSH3 0x19F JUMP JUMPDEST PUSH4 0x1E4FBDF7 PUSH1 0xE0 SHL DUP3 MSTORE PUSH1 0x0 PUSH1 0xC4 SWAP1 SWAP2 ADD MSTORE PUSH1 0x24 SWAP1 REVERT JUMPDEST PUSH4 0x4E487B71 PUSH1 0xE0 SHL PUSH1 0x0 MSTORE PUSH1 0x41 PUSH1 0x4 MSTORE PUSH1 0x24 PUSH1 0x0 REVERT JUMPDEST PUSH1 0x0 DUP1 REVERT JUMPDEST PUSH1 0x40 DUP2 ADD SWAP1 DUP2 LT PUSH1 0x1 PUSH1 0x1 PUSH1 0x40 SHL SUB DUP3 GT OR PUSH3 0x248 JUMPI PUSH1 0x40 MSTORE JUMP JUMPDEST DUP1 MLOAD PUSH1 0x20 SWAP2 SWAP1 DUP3 DUP2 LT ISZERO PUSH3 0x31E JUMPI POP SWAP1 PUSH1 0x1F DUP3 MLOAD GT PUSH3 0x2BD JUMPI DUP1 DUP3 MLOAD SWAP3 ADD MLOAD SWAP1 DUP1 DUP4 LT PUSH3 0x2AE JUMPI POP OR SWAP1 JUMP JUMPDEST DUP3 PUSH1 0x0 NOT SWAP2 SUB PUSH1 0x3 SHL SHL AND OR SWAP1 JUMP JUMPDEST SWAP1 PUSH1 0x40 MLOAD DUP1 SWAP3 PUSH4 0x305A27A9 PUSH1 0xE0 SHL DUP3 MSTORE DUP1 PUSH1 0x4 DUP4 ADD MSTORE DUP3 MLOAD SWAP1 DUP2 PUSH1 0x24 DUP5 ADD MSTORE PUSH1 0x0 SWAP4 JUMPDEST DUP3 DUP6 LT PUSH3 0x304 JUMPI POP POP PUSH1 0x44 SWAP3 POP PUSH1 0x0 DUP4 DUP3 DUP5 ADD ADD MSTORE PUSH1 0x1F DUP1 NOT SWAP2 ADD AND DUP2 ADD SUB ADD SWAP1 REVERT JUMPDEST DUP5 DUP2 ADD DUP3 ADD MLOAD DUP7 DUP7 ADD PUSH1 0x44 ADD MSTORE SWAP4 DUP2 ADD SWAP4 DUP6 SWAP4 POP PUSH3 0x2E0 JUMP JUMPDEST PUSH1 0x1 PUSH1 0x1 PUSH1 0x40 SHL SUB DUP2 GT PUSH3 0x248 JUMPI PUSH1 0x0 SWAP3 DUP4 SLOAD SWAP3 PUSH1 0x1 SWAP4 DUP5 DUP2 DUP2 SHR SWAP2 AND DUP1 ISZERO PUSH3 0x447 JUMPI JUMPDEST DUP4 DUP3 LT EQ PUSH3 0x433 JUMPI PUSH1 0x1F DUP2 GT PUSH3 0x3FD JUMPI JUMPDEST POP DUP2 PUSH1 0x1F DUP5 GT PUSH1 0x1 EQ PUSH3 0x396 JUMPI POP SWAP3 DUP3 SWAP4 SWAP2 DUP4 SWAP3 DUP7 SWAP5 PUSH3 0x38A JUMPI JUMPDEST POP POP SHL SWAP2 PUSH1 0x0 NOT SWAP1 PUSH1 0x3 SHL SHR NOT AND OR SWAP1 SSTORE PUSH1 0xFF SWAP1 JUMP JUMPDEST ADD MLOAD SWAP3 POP CODESIZE DUP1 PUSH3 0x374 JUMP JUMPDEST SWAP2 SWAP1 DUP4 PUSH1 0x1F NOT DUP2 AND DUP8 DUP1 MSTORE DUP5 DUP9 KECCAK256 SWAP5 DUP9 SWAP1 JUMPDEST DUP9 DUP4 DUP4 LT PUSH3 0x3E2 JUMPI POP POP POP LT PUSH3 0x3C8 JUMPI JUMPDEST POP POP POP DUP2 SHL ADD SWAP1 SSTORE PUSH1 0xFF SWAP1 JUMP JUMPDEST ADD MLOAD PUSH1 0x0 NOT PUSH1 0xF8 DUP5 PUSH1 0x3 SHL AND SHR NOT AND SWAP1 SSTORE CODESIZE DUP1 DUP1 PUSH3 0x3BB JUMP JUMPDEST DUP6 DUP8 ADD MLOAD DUP9 SSTORE SWAP1 SWAP7 ADD SWAP6 SWAP5 DUP6 ADD SWAP5 DUP8 SWAP4 POP SWAP1 DUP2 ADD SWAP1 PUSH3 0x3A8 JUMP JUMPDEST DUP6 DUP1 MSTORE DUP5 PUSH1 0x1F DUP5 DUP9 KECCAK256 SWAP3 ADD PUSH1 0x5 SHR DUP3 ADD SWAP2 PUSH1 0x1F DUP7 ADD PUSH1 0x5 SHR ADD JUMPDEST DUP3 DUP2 LT PUSH3 0x427 JUMPI POP POP PUSH3 0x357 JUMP JUMPDEST DUP8 DUP2 SSTORE ADD DUP6 SWAP1 PUSH3 0x417 JUMP JUMPDEST PUSH4 0x4E487B71 PUSH1 0xE0 SHL DUP7 MSTORE PUSH1 0x22 PUSH1 0x4 MSTORE PUSH1 0x24 DUP7 REVERT JUMPDEST SWAP1 PUSH1 0x7F AND SWAP1 PUSH3 0x344 JUMP JUMPDEST DUP1 MLOAD PUSH1 0x20 SWAP1 DUP2 DUP2 LT ISZERO PUSH3 0x4E0 JUMPI POP PUSH1 0x1F DUP3 MLOAD GT PUSH3 0x47F JUMPI DUP1 DUP3 MLOAD SWAP3 ADD MLOAD SWAP1 DUP1 DUP4 LT PUSH3 0x2AE JUMPI POP OR SWAP1 JUMP JUMPDEST SWAP1 PUSH1 0x40 MLOAD DUP1 SWAP3 PUSH4 0x305A27A9 PUSH1 0xE0 SHL DUP3 MSTORE DUP1 PUSH1 0x4 DUP4 ADD MSTORE DUP3 MLOAD SWAP1 DUP2 PUSH1 0x24 DUP5 ADD MSTORE PUSH1 0x0 SWAP4 JUMPDEST DUP3 DUP6 LT PUSH3 0x4C6 JUMPI POP POP PUSH1 0x44 SWAP3 POP PUSH1 0x0 DUP4 DUP3 DUP5 ADD ADD MSTORE PUSH1 0x1F DUP1 NOT SWAP2 ADD AND DUP2 ADD SUB ADD SWAP1 REVERT JUMPDEST DUP5 DUP2 ADD DUP3 ADD MLOAD DUP7 DUP7 ADD PUSH1 0x44 ADD MSTORE SWAP4 DUP2 ADD SWAP4 DUP6 SWAP4 POP PUSH3 0x4A2 JUMP JUMPDEST SWAP2 SWAP3 SWAP2 PUSH1 0x1 PUSH1 0x1 PUSH1 0x40 SHL SUB DUP2 GT PUSH3 0x248 JUMPI PUSH1 0x1 SWAP2 DUP3 SLOAD DUP4 DUP2 DUP2 SHR SWAP2 AND DUP1 ISZERO PUSH3 0x5F4 JUMPI JUMPDEST DUP3 DUP3 LT EQ PUSH3 0x5DE JUMPI PUSH1 0x1F DUP2 GT PUSH3 0x5A5 JUMPI JUMPDEST POP DUP1 PUSH1 0x1F DUP4 GT PUSH1 0x1 EQ PUSH3 0x558 JUMPI POP DUP2 SWAP3 SWAP4 SWAP5 PUSH1 0x0 SWAP3 PUSH3 0x54C JUMPI JUMPDEST POP POP PUSH1 0x0 NOT PUSH1 0x3 DUP4 SWAP1 SHL SHR NOT AND SWAP1 DUP3 SHL OR SWAP1 SSTORE PUSH1 0xFF SWAP1 JUMP JUMPDEST ADD MLOAD SWAP1 POP CODESIZE DUP1 PUSH3 0x534 JUMP JUMPDEST SWAP1 PUSH1 0x1F NOT DUP4 AND SWAP6 DUP5 PUSH1 0x0 MSTORE DUP3 PUSH1 0x0 KECCAK256 SWAP3 PUSH1 0x0 SWAP1 JUMPDEST DUP9 DUP3 LT PUSH3 0x58D JUMPI POP POP DUP4 DUP6 SWAP7 SWAP8 LT PUSH3 0x3C8 JUMPI POP POP POP DUP2 SHL ADD SWAP1 SSTORE PUSH1 0xFF SWAP1 JUMP JUMPDEST DUP1 DUP8 DUP6 SWAP7 DUP3 SWAP5 SWAP7 DUP7 ADD MLOAD DUP2 SSTORE ADD SWAP6 ADD SWAP4 ADD SWAP1 PUSH3 0x56C JUMP JUMPDEST DUP4 PUSH1 0x0 MSTORE DUP4 PUSH1 0x1F DUP4 PUSH1 0x0 KECCAK256 SWAP3 ADD PUSH1 0x5 SHR DUP3 ADD SWAP2 PUSH1 0x1F DUP6 ADD PUSH1 0x5 SHR ADD JUMPDEST DUP3 DUP2 LT PUSH3 0x5D1 JUMPI POP POP PUSH3 0x518 JUMP JUMPDEST PUSH1 0x0 DUP2 SSTORE ADD DUP5 SWAP1 PUSH3 0x5C1 JUMP JUMPDEST PUSH4 0x4E487B71 PUSH1 0xE0 SHL PUSH1 0x0 MSTORE PUSH1 0x22 PUSH1 0x4 MSTORE PUSH1 0x24 PUSH1 0x0 REVERT JUMPDEST SWAP1 PUSH1 0x7F AND SWAP1 PUSH3 0x505 JUMP INVALID PUSH1 0x80 DUP1 PUSH1 0x40 MSTORE PUSH1 0x4 CALLDATASIZE LT ISZERO PUSH2 0x13 JUMPI PUSH1 0x0 DUP1 REVERT JUMPDEST PUSH1 0x0 CALLDATALOAD PUSH1 0xE0 SHR SWAP1 DUP2 PUSH4 0x33105218 EQ PUSH2 0x966 JUMPI POP DUP1 PUSH4 0x715018A6 EQ PUSH2 0x909 JUMPI DUP1 PUSH4 0x76DD110F EQ PUSH2 0x7F1 JUMPI DUP1 PUSH4 0x7ECEBE00 EQ PUSH2 0x7B7 JUMPI DUP1 PUSH4 0x84B0196E EQ PUSH2 0x696 JUMPI DUP1 PUSH4 0x8DA5CB5B EQ PUSH2 0x66D JUMPI DUP1 PUSH4 0xAC9B5671 EQ PUSH2 0x5EE JUMPI DUP1 PUSH4 0xB23881E5 EQ PUSH2 0x143 JUMPI DUP1 PUSH4 0xF2FDE38B EQ PUSH2 0xB5 JUMPI PUSH4 0xF698DA25 EQ PUSH2 0x8D JUMPI PUSH1 0x0 DUP1 REVERT JUMPDEST CALLVALUE PUSH2 0xB0 JUMPI PUSH1 0x0 CALLDATASIZE PUSH1 0x3 NOT ADD SLT PUSH2 0xB0 JUMPI PUSH1 0x20 PUSH2 0xA8 PUSH2 0xB10 JUMP JUMPDEST PUSH1 0x40 MLOAD SWAP1 DUP2 MSTORE RETURN JUMPDEST PUSH1 0x0 DUP1 REVERT JUMPDEST CALLVALUE PUSH2 0xB0 JUMPI PUSH1 0x20 CALLDATASIZE PUSH1 0x3 NOT ADD SLT PUSH2 0xB0 JUMPI PUSH2 0xCE PUSH2 0x9A1 JUMP JUMPDEST PUSH2 0xD6 PUSH2 0xAE4 JUMP JUMPDEST PUSH1 0x1 PUSH1 0x1 PUSH1 0xA0 SHL SUB SWAP1 DUP2 AND SWAP1 DUP2 ISZERO PUSH2 0x12A JUMPI PUSH1 0x2 SLOAD DUP3 PUSH12 0xFFFFFFFFFFFFFFFFFFFFFFFF PUSH1 0xA0 SHL DUP3 AND OR PUSH1 0x2 SSTORE AND PUSH32 0x8BE0079C531659141344CD1FD0A4F28419497F9722A3DAAFE3B4186F6B6457E0 PUSH1 0x0 DUP1 LOG3 STOP JUMPDEST PUSH1 0x40 MLOAD PUSH4 0x1E4FBDF7 PUSH1 0xE0 SHL DUP2 MSTORE PUSH1 0x0 PUSH1 0x4 DUP3 ADD MSTORE PUSH1 0x24 SWAP1 REVERT JUMPDEST CALLVALUE PUSH2 0xB0 JUMPI PUSH1 0xC0 CALLDATASIZE PUSH1 0x3 NOT ADD SLT PUSH2 0xB0 JUMPI PUSH2 0x15C PUSH2 0x9A1 JUMP JUMPDEST PUSH1 0x24 DUP1 CALLDATALOAD SWAP1 PUSH1 0xFF DUP3 AND DUP3 SUB PUSH2 0xB0 JUMPI PUSH1 0x44 CALLDATALOAD PUSH8 0xFFFFFFFFFFFFFFFF DUP2 GT PUSH2 0xB0 JUMPI PUSH2 0x18B SWAP1 CALLDATASIZE SWAP1 PUSH1 0x4 ADD PUSH2 0xA6F JUMP JUMPDEST SWAP3 SWAP1 PUSH1 0x84 CALLDATALOAD PUSH1 0xA4 CALLDATALOAD PUSH8 0xFFFFFFFFFFFFFFFF DUP2 GT PUSH2 0xB0 JUMPI PUSH2 0x1B0 SWAP1 CALLDATASIZE SWAP1 PUSH1 0x4 ADD PUSH2 0xA6F JUMP JUMPDEST SWAP2 PUSH1 0x64 PUSH1 0xFF DUP7 AND GT PUSH2 0x5D4 JUMPI DUP1 TIMESTAMP GT PUSH2 0x5BD JUMPI PUSH2 0x1CE CALLDATASIZE DUP9 DUP7 PUSH2 0xA9D JUMP JUMPDEST PUSH1 0x20 DUP2 MLOAD SWAP2 ADD KECCAK256 SWAP1 PUSH1 0x40 MLOAD SWAP1 PUSH1 0x20 DUP3 ADD SWAP3 PUSH32 0xFD42A75B0C55BA7B0F8018FA1418EA8EBDC58C60255E2630DD39BFE56399C5D7 DUP5 MSTORE PUSH1 0x1 DUP1 PUSH1 0xA0 SHL SUB DUP12 AND PUSH1 0x40 DUP5 ADD MSTORE PUSH1 0xFF DUP9 AND PUSH1 0x60 DUP5 ADD MSTORE PUSH1 0x80 DUP4 ADD MSTORE PUSH1 0x64 CALLDATALOAD PUSH1 0xA0 DUP4 ADD MSTORE PUSH1 0xC0 DUP3 ADD MSTORE PUSH1 0xC0 DUP2 MSTORE PUSH1 0xE0 DUP2 ADD DUP2 DUP2 LT PUSH8 0xFFFFFFFFFFFFFFFF DUP3 GT OR PUSH2 0x5A8 JUMPI SWAP3 PUSH1 0x42 PUSH2 0x293 SWAP6 SWAP4 PUSH2 0x284 SWAP4 PUSH2 0x28A SWAP7 PUSH1 0x40 MSTORE MLOAD SWAP1 KECCAK256 PUSH2 0x264 PUSH2 0xB10 JUMP JUMPDEST SWAP1 PUSH1 0x40 MLOAD SWAP2 PUSH2 0x1901 PUSH1 0xF0 SHL DUP4 MSTORE PUSH1 0x2 DUP4 ADD MSTORE PUSH1 0x22 DUP3 ADD MSTORE KECCAK256 SWAP3 CALLDATASIZE SWAP2 PUSH2 0xA9D JUMP JUMPDEST SWAP1 PUSH2 0xE00 JUMP JUMPDEST SWAP1 SWAP3 SWAP2 SWAP3 PUSH2 0xE3C JUMP JUMPDEST PUSH1 0x1 PUSH1 0x1 PUSH1 0xA0 SHL SUB AND PUSH1 0x0 DUP2 DUP2 MSTORE PUSH1 0x4 PUSH1 0x20 MSTORE PUSH1 0x40 SWAP1 KECCAK256 SLOAD PUSH1 0xFF AND ISZERO PUSH2 0x591 JUMPI DUP1 PUSH1 0x0 MSTORE PUSH1 0x5 PUSH1 0x20 MSTORE PUSH1 0x40 PUSH1 0x0 KECCAK256 SLOAD PUSH1 0x64 CALLDATALOAD DUP2 SUB PUSH2 0x570 JUMPI POP PUSH1 0x0 MSTORE PUSH1 0x5 PUSH1 0x20 MSTORE PUSH1 0x1 PUSH1 0x64 CALLDATALOAD ADD PUSH1 0x40 PUSH1 0x0 KECCAK256 SSTORE PUSH1 0x40 MLOAD PUSH1 0x80 DUP2 ADD DUP2 DUP2 LT PUSH8 0xFFFFFFFFFFFFFFFF DUP3 GT OR PUSH2 0x55B JUMPI PUSH1 0x40 MSTORE PUSH1 0xFF DUP4 AND DUP2 MSTORE PUSH2 0x30E CALLDATASIZE DUP7 DUP5 PUSH2 0xA9D JUMP JUMPDEST PUSH1 0x20 DUP3 ADD SWAP1 DUP2 MSTORE TIMESTAMP PUSH1 0x40 DUP4 ADD MSTORE CALLER PUSH1 0x60 DUP4 ADD MSTORE PUSH1 0x1 DUP1 PUSH1 0xA0 SHL SUB DUP8 AND PUSH1 0x0 MSTORE PUSH1 0x3 PUSH1 0x20 MSTORE PUSH1 0x40 PUSH1 0x0 KECCAK256 SWAP1 PUSH1 0xFF DUP4 MLOAD AND PUSH1 0xFF NOT DUP4 SLOAD AND OR DUP3 SSTORE MLOAD DUP1 MLOAD SWAP6 PUSH8 0xFFFFFFFFFFFFFFFF DUP8 GT PUSH2 0x547 JUMPI POP SWAP1 DUP7 SWAP4 SWAP3 SWAP2 PUSH2 0x36C PUSH1 0x1 DUP4 ADD SLOAD PUSH2 0x9B7 JUMP JUMPDEST PUSH1 0x1F DUP2 GT PUSH2 0x4EE JUMPI JUMPDEST POP PUSH1 0x20 SWAP1 PUSH1 0x1F DUP9 GT PUSH1 0x1 EQ PUSH2 0x457 JUMPI SWAP7 DUP1 PUSH1 0x3 SWAP4 SWAP3 PUSH32 0x13426932AC9F192F017F3996A9D0CBC26A7A95A0D1BB961C100CBB2748DDFE70 SWAP10 PUSH1 0x0 SWAP3 PUSH2 0x44C JUMPI JUMPDEST POP POP PUSH1 0x0 NOT DUP3 DUP6 SHL SHR NOT AND PUSH1 0x1 SWAP2 DUP3 SHL OR SWAP1 DUP3 ADD SSTORE JUMPDEST PUSH1 0x40 DUP4 ADD MLOAD PUSH1 0x2 DUP3 ADD SSTORE ADD SWAP1 PUSH1 0x60 PUSH1 0x1 DUP1 PUSH1 0xA0 SHL SUB SWAP2 ADD MLOAD AND PUSH12 0xFFFFFFFFFFFFFFFFFFFFFFFF PUSH1 0xA0 SHL DUP3 SLOAD AND OR SWAP1 SSTORE PUSH1 0xFF PUSH1 0x40 MLOAD SWAP4 AND DUP4 MSTORE PUSH1 0x80 PUSH1 0x20 DUP5 ADD MSTORE DUP2 PUSH1 0x80 DUP5 ADD MSTORE PUSH1 0xA0 DUP4 ADD CALLDATACOPY PUSH1 0x0 PUSH1 0xA0 DUP5 DUP4 ADD DUP2 ADD SWAP2 SWAP1 SWAP2 MSTORE TIMESTAMP PUSH1 0x40 DUP4 ADD MSTORE PUSH1 0x64 CALLDATALOAD PUSH1 0x60 DUP4 ADD MSTORE CALLER SWAP5 PUSH1 0x1 PUSH1 0x1 PUSH1 0xA0 SHL SUB AND SWAP4 PUSH1 0x1F ADD PUSH1 0x1F NOT AND DUP3 ADD DUP3 SWAP1 SUB ADD SWAP1 LOG3 STOP JUMPDEST ADD MLOAD SWAP1 POP DUP12 DUP1 PUSH2 0x3B4 JUMP JUMPDEST SWAP7 SWAP1 PUSH1 0x1 DUP4 ADD PUSH1 0x0 MSTORE PUSH1 0x20 PUSH1 0x0 KECCAK256 SWAP8 PUSH1 0x0 JUMPDEST PUSH1 0x1F NOT DUP5 AND DUP2 LT PUSH2 0x4D3 JUMPI POP SWAP2 PUSH32 0x13426932AC9F192F017F3996A9D0CBC26A7A95A0D1BB961C100CBB2748DDFE70 SWAP9 PUSH1 0x1 SWAP3 PUSH1 0x3 SWAP6 SWAP5 DUP4 PUSH1 0x1F NOT DUP2 AND LT PUSH2 0x4BB JUMPI JUMPDEST POP POP POP DUP2 SHL ADD PUSH1 0x1 DUP3 ADD SSTORE PUSH2 0x3CA JUMP JUMPDEST ADD MLOAD PUSH1 0x0 NOT DUP4 DUP8 SHL PUSH1 0xF8 AND SHR NOT AND SWAP1 SSTORE DUP12 DUP1 DUP1 PUSH2 0x4AB JUMP JUMPDEST DUP3 DUP3 ADD MLOAD DUP11 SSTORE PUSH1 0x1 SWAP1 SWAP10 ADD SWAP9 DUP11 SWAP8 POP PUSH1 0x20 SWAP3 DUP4 ADD SWAP3 ADD PUSH2 0x469 JUMP JUMPDEST SWAP1 SWAP2 SWAP3 SWAP4 SWAP5 POP PUSH1 0x1 DUP4 ADD PUSH1 0x0 MSTORE PUSH1 0x20 PUSH1 0x0 KECCAK256 PUSH1 0x1F DUP9 ADD PUSH1 0x5 SHR DUP2 ADD PUSH1 0x20 DUP10 LT PUSH2 0x540 JUMPI JUMPDEST SWAP1 DUP10 SWAP7 SWAP6 SWAP5 SWAP4 SWAP3 SWAP2 JUMPDEST PUSH1 0x1F DUP4 ADD PUSH1 0x5 SHR DUP3 ADD DUP2 LT PUSH2 0x531 JUMPI POP POP PUSH2 0x375 JUMP JUMPDEST PUSH1 0x0 DUP2 SSTORE DUP11 SWAP8 POP PUSH1 0x1 ADD PUSH2 0x51B JUMP JUMPDEST POP DUP1 PUSH2 0x512 JUMP JUMPDEST PUSH4 0x4E487B71 PUSH1 0xE0 SHL PUSH1 0x0 SWAP1 DUP2 MSTORE PUSH1 0x41 PUSH1 0x4 MSTORE REVERT JUMPDEST DUP5 PUSH4 0x4E487B71 PUSH1 0xE0 SHL PUSH1 0x0 MSTORE PUSH1 0x41 PUSH1 0x4 MSTORE PUSH1 0x0 REVERT JUMPDEST PUSH1 0x40 MLOAD PUSH4 0x6427AEB PUSH1 0xE0 SHL DUP2 MSTORE PUSH1 0x4 DUP2 ADD SWAP2 SWAP1 SWAP2 MSTORE PUSH1 0x64 CALLDATALOAD DUP2 DUP7 ADD MSTORE PUSH1 0x44 SWAP1 REVERT JUMPDEST DUP4 SWAP1 PUSH1 0x40 MLOAD SWAP1 PUSH4 0x1606811F PUSH1 0xE2 SHL DUP3 MSTORE PUSH1 0x4 DUP3 ADD MSTORE REVERT JUMPDEST DUP8 PUSH4 0x4E487B71 PUSH1 0xE0 SHL PUSH1 0x0 MSTORE PUSH1 0x41 PUSH1 0x4 MSTORE PUSH1 0x0 REVERT JUMPDEST DUP6 SWAP1 PUSH1 0x40 MLOAD SWAP1 PUSH4 0xCD21DB4F PUSH1 0xE0 SHL DUP3 MSTORE PUSH1 0x4 DUP3 ADD MSTORE REVERT JUMPDEST PUSH1 0x40 MLOAD PUSH4 0x2D6270C5 PUSH1 0xE2 SHL DUP2 MSTORE PUSH1 0xFF DUP7 AND PUSH1 0x4 DUP3 ADD MSTORE DUP7 SWAP1 REVERT JUMPDEST CALLVALUE PUSH2 0xB0 JUMPI PUSH1 0x40 CALLDATASIZE PUSH1 0x3 NOT ADD SLT PUSH2 0xB0 JUMPI PUSH2 0x607 PUSH2 0x9A1 JUMP JUMPDEST PUSH1 0x24 CALLDATALOAD SWAP1 DUP2 ISZERO ISZERO DUP1 SWAP3 SUB PUSH2 0xB0 JUMPI PUSH1 0x20 PUSH32 0x7A6DD775B9B6AA6EBDE6F0C51172EF328EB9658E095364751705F28234E7257C SWAP2 PUSH2 0x641 PUSH2 0xAE4 JUMP JUMPDEST PUSH1 0x1 DUP1 PUSH1 0xA0 SHL SUB AND SWAP3 DUP4 PUSH1 0x0 MSTORE PUSH1 0x4 DUP3 MSTORE PUSH1 0x40 PUSH1 0x0 KECCAK256 PUSH1 0xFF NOT DUP2 SLOAD AND PUSH1 0xFF DUP4 AND OR SWAP1 SSTORE PUSH1 0x40 MLOAD SWAP1 DUP2 MSTORE LOG2 STOP JUMPDEST CALLVALUE PUSH2 0xB0 JUMPI PUSH1 0x0 CALLDATASIZE PUSH1 0x3 NOT ADD SLT PUSH2 0xB0 JUMPI PUSH1 0x2 SLOAD PUSH1 0x40 MLOAD PUSH1 0x1 PUSH1 0x1 PUSH1 0xA0 SHL SUB SWAP1 SWAP2 AND DUP2 MSTORE PUSH1 0x20 SWAP1 RETURN JUMPDEST CALLVALUE PUSH2 0xB0 JUMPI PUSH1 0x0 CALLDATASIZE PUSH1 0x3 NOT ADD SLT PUSH2 0xB0 JUMPI PUSH2 0x6D0 PUSH32 0x0 PUSH2 0xC3B JUMP JUMPDEST PUSH2 0x6F9 PUSH32 0x0 PUSH2 0xD3F JUMP JUMPDEST PUSH1 0x40 MLOAD PUSH1 0x20 DUP1 DUP3 ADD SWAP3 DUP3 DUP5 LT PUSH8 0xFFFFFFFFFFFFFFFF DUP6 GT OR PUSH2 0x7A1 JUMPI SWAP2 PUSH1 0x20 PUSH2 0x754 DUP6 SWAP5 PUSH2 0x746 SWAP8 SWAP7 PUSH1 0x40 MSTORE PUSH1 0x0 DUP5 MSTORE PUSH1 0x40 MLOAD SWAP8 DUP9 SWAP8 PUSH1 0xF PUSH1 0xF8 SHL DUP10 MSTORE PUSH1 0xE0 DUP6 DUP11 ADD MSTORE PUSH1 0xE0 DUP10 ADD SWAP1 PUSH2 0xA2F JUMP JUMPDEST SWAP1 DUP8 DUP3 SUB PUSH1 0x40 DUP10 ADD MSTORE PUSH2 0xA2F JUMP JUMPDEST SWAP2 CHAINID PUSH1 0x60 DUP8 ADD MSTORE ADDRESS PUSH1 0x80 DUP8 ADD MSTORE PUSH1 0x0 PUSH1 0xA0 DUP8 ADD MSTORE DUP6 DUP4 SUB PUSH1 0xC0 DUP8 ADD MSTORE MLOAD SWAP2 DUP3 DUP2 MSTORE ADD SWAP3 SWAP2 PUSH1 0x0 JUMPDEST DUP3 DUP2 LT PUSH2 0x78A JUMPI POP POP POP POP SUB SWAP1 RETURN JUMPDEST DUP4 MLOAD DUP6 MSTORE DUP7 SWAP6 POP SWAP4 DUP2 ADD SWAP4 SWAP3 DUP2 ADD SWAP3 PUSH1 0x1 ADD PUSH2 0x77B JUMP JUMPDEST PUSH4 0x4E487B71 PUSH1 0xE0 SHL PUSH1 0x0 MSTORE PUSH1 0x41 PUSH1 0x4 MSTORE PUSH1 0x24 PUSH1 0x0 REVERT JUMPDEST CALLVALUE PUSH2 0xB0 JUMPI PUSH1 0x20 CALLDATASIZE PUSH1 0x3 NOT ADD SLT PUSH2 0xB0 JUMPI PUSH1 0x1 PUSH1 0x1 PUSH1 0xA0 SHL SUB PUSH2 0x7D8 PUSH2 0x9A1 JUMP JUMPDEST AND PUSH1 0x0 MSTORE PUSH1 0x5 PUSH1 0x20 MSTORE PUSH1 0x20 PUSH1 0x40 PUSH1 0x0 KECCAK256 SLOAD PUSH1 0x40 MLOAD SWAP1 DUP2 MSTORE RETURN JUMPDEST CALLVALUE PUSH2 0xB0 JUMPI PUSH1 0x20 DUP1 PUSH1 0x3 NOT CALLDATASIZE ADD SLT PUSH2 0xB0 JUMPI PUSH1 0x1 PUSH1 0x1 PUSH1 0xA0 SHL SUB DUP1 PUSH2 0x814 PUSH2 0x9A1 JUMP JUMPDEST AND PUSH1 0x0 MSTORE PUSH1 0x3 DUP3 MSTORE PUSH1 0x40 PUSH1 0x0 KECCAK256 DUP3 PUSH1 0xFF DUP3 SLOAD AND SWAP3 PUSH1 0x1 DUP1 DUP5 ADD SWAP1 PUSH1 0x40 MLOAD SWAP4 DUP5 SWAP3 PUSH1 0x0 SWAP3 DUP2 SLOAD SWAP2 PUSH2 0x843 DUP4 PUSH2 0x9B7 JUMP JUMPDEST DUP1 DUP8 MSTORE SWAP3 PUSH1 0x1 DUP2 AND SWAP1 DUP2 ISZERO PUSH2 0x8E7 JUMPI POP PUSH1 0x1 EQ PUSH2 0x8A1 JUMPI JUMPDEST POP POP POP POP PUSH2 0x892 SWAP3 SWAP2 PUSH2 0x86F SWAP2 SUB DUP5 PUSH2 0xA0D JUMP JUMPDEST PUSH1 0x3 PUSH1 0x2 DUP6 ADD SLOAD SWAP5 ADD SLOAD AND SWAP2 PUSH1 0x80 PUSH1 0x40 MLOAD SWAP7 DUP8 SWAP7 DUP8 MSTORE DUP7 ADD MSTORE PUSH1 0x80 DUP6 ADD SWAP1 PUSH2 0xA2F JUMP JUMPDEST SWAP2 PUSH1 0x40 DUP5 ADD MSTORE PUSH1 0x60 DUP4 ADD MSTORE SUB SWAP1 RETURN JUMPDEST PUSH1 0x0 SWAP1 DUP2 MSTORE DUP4 DUP2 KECCAK256 SWAP7 SWAP6 SWAP5 POP SWAP2 SWAP1 JUMPDEST DUP2 DUP4 LT PUSH2 0x8CF JUMPI POP SWAP4 SWAP5 POP SWAP2 SWAP3 POP SWAP1 DUP3 ADD ADD DUP7 PUSH2 0x86F PUSH2 0x892 DUP11 PUSH2 0x85B JUMP JUMPDEST DUP7 SLOAD DUP9 DUP5 ADD DUP6 ADD MSTORE SWAP6 DUP7 ADD SWAP6 DUP8 SWAP5 POP SWAP2 DUP4 ADD SWAP2 PUSH2 0x8B0 JUMP JUMPDEST PUSH1 0xFF NOT AND DUP6 DUP9 ADD MSTORE POP POP POP ISZERO ISZERO PUSH1 0x5 SHL DUP4 ADD ADD SWAP1 POP DUP7 PUSH2 0x86F PUSH2 0x892 DUP11 PUSH2 0x85B JUMP JUMPDEST CALLVALUE PUSH2 0xB0 JUMPI PUSH1 0x0 CALLDATASIZE PUSH1 0x3 NOT ADD SLT PUSH2 0xB0 JUMPI PUSH2 0x922 PUSH2 0xAE4 JUMP JUMPDEST PUSH1 0x2 DUP1 SLOAD PUSH1 0x1 PUSH1 0x1 PUSH1 0xA0 SHL SUB NOT DUP2 AND SWAP1 SWAP2 SSTORE PUSH1 0x0 SWAP1 PUSH1 0x1 PUSH1 0x1 PUSH1 0xA0 SHL SUB AND PUSH32 0x8BE0079C531659141344CD1FD0A4F28419497F9722A3DAAFE3B4186F6B6457E0 DUP3 DUP1 LOG3 STOP JUMPDEST CALLVALUE PUSH2 0xB0 JUMPI PUSH1 0x20 CALLDATASIZE PUSH1 0x3 NOT ADD SLT PUSH2 0xB0 JUMPI PUSH1 0x20 SWAP1 PUSH1 0x1 PUSH1 0x1 PUSH1 0xA0 SHL SUB PUSH2 0x98A PUSH2 0x9A1 JUMP JUMPDEST AND PUSH1 0x0 MSTORE PUSH1 0x4 DUP3 MSTORE PUSH1 0xFF PUSH1 0x40 PUSH1 0x0 KECCAK256 SLOAD AND ISZERO ISZERO DUP2 MSTORE RETURN JUMPDEST PUSH1 0x4 CALLDATALOAD SWAP1 PUSH1 0x1 PUSH1 0x1 PUSH1 0xA0 SHL SUB DUP3 AND DUP3 SUB PUSH2 0xB0 JUMPI JUMP JUMPDEST SWAP1 PUSH1 0x1 DUP3 DUP2 SHR SWAP3 AND DUP1 ISZERO PUSH2 0x9E7 JUMPI JUMPDEST PUSH1 0x20 DUP4 LT EQ PUSH2 0x9D1 JUMPI JUMP JUMPDEST PUSH4 0x4E487B71 PUSH1 0xE0 SHL PUSH1 0x0 MSTORE PUSH1 0x22 PUSH1 0x4 MSTORE PUSH1 0x24 PUSH1 0x0 REVERT JUMPDEST SWAP2 PUSH1 0x7F AND SWAP2 PUSH2 0x9C6 JUMP JUMPDEST PUSH1 0x40 DUP2 ADD SWAP1 DUP2 LT PUSH8 0xFFFFFFFFFFFFFFFF DUP3 GT OR PUSH2 0x7A1 JUMPI PUSH1 0x40 MSTORE JUMP JUMPDEST SWAP1 PUSH1 0x1F DUP1 NOT SWAP2 ADD AND DUP2 ADD SWAP1 DUP2 LT PUSH8 0xFFFFFFFFFFFFFFFF DUP3 GT OR PUSH2 0x7A1 JUMPI PUSH1 0x40 MSTORE JUMP JUMPDEST SWAP2 SWAP1 DUP3 MLOAD SWAP3 DUP4 DUP3 MSTORE PUSH1 0x0 JUMPDEST DUP5 DUP2 LT PUSH2 0xA5B JUMPI POP POP DUP3 PUSH1 0x0 PUSH1 0x20 DUP1 SWAP5 SWAP6 DUP5 ADD ADD MSTORE PUSH1 0x1F DUP1 NOT SWAP2 ADD AND ADD ADD SWAP1 JUMP JUMPDEST PUSH1 0x20 DUP2 DUP4 ADD DUP2 ADD MLOAD DUP5 DUP4 ADD DUP3 ADD MSTORE ADD PUSH2 0xA3A JUMP JUMPDEST SWAP2 DUP2 PUSH1 0x1F DUP5 ADD SLT ISZERO PUSH2 0xB0 JUMPI DUP3 CALLDATALOAD SWAP2 PUSH8 0xFFFFFFFFFFFFFFFF DUP4 GT PUSH2 0xB0 JUMPI PUSH1 0x20 DUP4 DUP2 DUP7 ADD SWAP6 ADD ADD GT PUSH2 0xB0 JUMPI JUMP JUMPDEST SWAP3 SWAP2 SWAP3 PUSH8 0xFFFFFFFFFFFFFFFF DUP3 GT PUSH2 0x7A1 JUMPI PUSH1 0x40 MLOAD SWAP2 PUSH2 0xAC7 PUSH1 0x1F DUP3 ADD PUSH1 0x1F NOT AND PUSH1 0x20 ADD DUP5 PUSH2 0xA0D JUMP JUMPDEST DUP3 SWAP5 DUP2 DUP5 MSTORE DUP2 DUP4 ADD GT PUSH2 0xB0 JUMPI DUP3 DUP2 PUSH1 0x20 SWAP4 DUP5 PUSH1 0x0 SWAP7 ADD CALLDATACOPY ADD ADD MSTORE JUMP JUMPDEST PUSH1 0x2 SLOAD PUSH1 0x1 PUSH1 0x1 PUSH1 0xA0 SHL SUB AND CALLER SUB PUSH2 0xAF8 JUMPI JUMP JUMPDEST PUSH1 0x40 MLOAD PUSH4 0x118CDAA7 PUSH1 0xE0 SHL DUP2 MSTORE CALLER PUSH1 0x4 DUP3 ADD MSTORE PUSH1 0x24 SWAP1 REVERT JUMPDEST ADDRESS PUSH32 0x0 PUSH1 0x1 PUSH1 0x1 PUSH1 0xA0 SHL SUB AND EQ DUP1 PUSH2 0xC12 JUMPI JUMPDEST ISZERO PUSH2 0xB6B JUMPI PUSH32 0x0 SWAP1 JUMP JUMPDEST PUSH1 0x40 MLOAD PUSH1 0x20 DUP2 ADD SWAP1 PUSH32 0x8B73C3C69BB8FE3D512ECC4CF759CC79239F7B179B0FFACAA9A75D522B39400F DUP3 MSTORE PUSH32 0x0 PUSH1 0x40 DUP3 ADD MSTORE PUSH32 0x0 PUSH1 0x60 DUP3 ADD MSTORE CHAINID PUSH1 0x80 DUP3 ADD MSTORE ADDRESS PUSH1 0xA0 DUP3 ADD MSTORE PUSH1 0xA0 DUP2 MSTORE PUSH1 0xC0 DUP2 ADD DUP2 DUP2 LT PUSH8 0xFFFFFFFFFFFFFFFF DUP3 GT OR PUSH2 0x7A1 JUMPI PUSH1 0x40 MSTORE MLOAD SWAP1 KECCAK256 SWAP1 JUMP JUMPDEST POP PUSH32 0x0 CHAINID EQ PUSH2 0xB42 JUMP JUMPDEST PUSH1 0xFF DUP2 EQ PUSH2 0xC79 JUMPI PUSH1 0xFF DUP2 AND SWAP1 PUSH1 0x1F DUP3 GT PUSH2 0xC67 JUMPI PUSH1 0x40 MLOAD SWAP2 PUSH2 0xC5D DUP4 PUSH2 0x9F1 JUMP JUMPDEST DUP3 MSTORE PUSH1 0x20 DUP3 ADD MSTORE SWAP1 JUMP JUMPDEST PUSH1 0x40 MLOAD PUSH4 0x2CD44AC3 PUSH1 0xE2 SHL DUP2 MSTORE PUSH1 0x4 SWAP1 REVERT JUMPDEST POP PUSH1 0x40 MLOAD PUSH1 0x0 DUP2 PUSH1 0x0 SLOAD SWAP2 PUSH2 0xC8D DUP4 PUSH2 0x9B7 JUMP JUMPDEST DUP1 DUP4 MSTORE SWAP3 PUSH1 0x20 SWAP1 PUSH1 0x1 SWAP1 DUP2 DUP2 AND SWAP1 DUP2 ISZERO PUSH2 0xD1B JUMPI POP PUSH1 0x1 EQ PUSH2 0xCBB JUMPI JUMPDEST POP POP PUSH2 0xCB8 SWAP3 POP SUB DUP3 PUSH2 0xA0D JUMP JUMPDEST SWAP1 JUMP JUMPDEST SWAP2 POP SWAP3 PUSH1 0x0 DUP1 MSTORE PUSH32 0x290DECD9548B62A8D60345A988386FC84BA6BC95484008F6362F93160EF3E563 SWAP4 PUSH1 0x0 SWAP3 JUMPDEST DUP3 DUP5 LT PUSH2 0xD03 JUMPI POP PUSH2 0xCB8 SWAP5 POP POP POP DUP2 ADD PUSH1 0x20 ADD CODESIZE DUP1 PUSH2 0xCAA JUMP JUMPDEST DUP6 SLOAD DUP8 DUP6 ADD DUP4 ADD MSTORE SWAP5 DUP6 ADD SWAP5 DUP7 SWAP5 POP SWAP3 DUP2 ADD SWAP3 PUSH2 0xCE8 JUMP JUMPDEST SWAP2 POP POP PUSH1 0x20 SWAP3 POP PUSH2 0xCB8 SWAP5 SWAP2 POP PUSH1 0xFF NOT AND DUP3 DUP5 ADD MSTORE ISZERO ISZERO PUSH1 0x5 SHL DUP3 ADD ADD CODESIZE DUP1 PUSH2 0xCAA JUMP JUMPDEST PUSH1 0xFF DUP2 EQ PUSH2 0xD61 JUMPI PUSH1 0xFF DUP2 AND SWAP1 PUSH1 0x1F DUP3 GT PUSH2 0xC67 JUMPI PUSH1 0x40 MLOAD SWAP2 PUSH2 0xC5D DUP4 PUSH2 0x9F1 JUMP JUMPDEST POP PUSH1 0x40 MLOAD PUSH1 0x0 DUP2 PUSH1 0x1 SWAP2 PUSH1 0x1 SLOAD PUSH2 0xD77 DUP2 PUSH2 0x9B7 JUMP JUMPDEST DUP1 DUP5 MSTORE SWAP4 PUSH1 0x20 SWAP2 PUSH1 0x1 DUP2 AND SWAP1 DUP2 ISZERO PUSH2 0xD1B JUMPI POP PUSH1 0x1 EQ PUSH2 0xD9F JUMPI POP POP PUSH2 0xCB8 SWAP3 POP SUB DUP3 PUSH2 0xA0D JUMP JUMPDEST SWAP2 POP SWAP3 PUSH1 0x1 PUSH1 0x0 MSTORE PUSH32 0xB10E2D527612073B26EECDFD717E6A320CF44B4AFAC2B0732D9FCBE2B7FA0CF6 SWAP4 PUSH1 0x0 SWAP3 JUMPDEST DUP3 DUP5 LT PUSH2 0xDE8 JUMPI POP PUSH2 0xCB8 SWAP5 POP POP POP DUP2 ADD PUSH1 0x20 ADD CODESIZE DUP1 PUSH2 0xCAA JUMP JUMPDEST DUP6 SLOAD DUP8 DUP6 ADD DUP4 ADD MSTORE SWAP5 DUP6 ADD SWAP5 DUP7 SWAP5 POP SWAP3 DUP2 ADD SWAP3 PUSH2 0xDCD JUMP JUMPDEST DUP2 MLOAD SWAP2 SWAP1 PUSH1 0x41 DUP4 SUB PUSH2 0xE31 JUMPI PUSH2 0xE2A SWAP3 POP PUSH1 0x20 DUP3 ADD MLOAD SWAP1 PUSH1 0x60 PUSH1 0x40 DUP5 ADD MLOAD SWAP4 ADD MLOAD PUSH1 0x0 BYTE SWAP1 PUSH2 0xEC1 JUMP JUMPDEST SWAP2 SWAP3 SWAP1 SWAP2 SWAP1 JUMP JUMPDEST POP POP PUSH1 0x0 SWAP2 PUSH1 0x2 SWAP2 SWAP1 JUMP JUMPDEST PUSH1 0x4 DUP2 LT ISZERO PUSH2 0xEAB JUMPI DUP1 PUSH2 0xE4E JUMPI POP POP JUMP JUMPDEST PUSH1 0x1 DUP2 SUB PUSH2 0xE68 JUMPI PUSH1 0x40 MLOAD PUSH4 0xF645EEDF PUSH1 0xE0 SHL DUP2 MSTORE PUSH1 0x4 SWAP1 REVERT JUMPDEST PUSH1 0x2 DUP2 SUB PUSH2 0xE89 JUMPI PUSH1 0x40 MLOAD PUSH4 0xFCE698F7 PUSH1 0xE0 SHL DUP2 MSTORE PUSH1 0x4 DUP2 ADD DUP4 SWAP1 MSTORE PUSH1 0x24 SWAP1 REVERT JUMPDEST PUSH1 0x3 EQ PUSH2 0xE93 JUMPI POP JUMP JUMPDEST PUSH1 0x24 SWAP1 PUSH1 0x40 MLOAD SWAP1 PUSH4 0x35E2F383 PUSH1 0xE2 SHL DUP3 MSTORE PUSH1 0x4 DUP3 ADD MSTORE REVERT JUMPDEST PUSH4 0x4E487B71 PUSH1 0xE0 SHL PUSH1 0x0 MSTORE PUSH1 0x21 PUSH1 0x4 MSTORE PUSH1 0x24 PUSH1 0x0 REVERT JUMPDEST SWAP2 SWAP1 PUSH32 0x7FFFFFFFFFFFFFFFFFFFFFFFFFFFFFFF5D576E7357A4501DDFE92F46681B20A0 DUP5 GT PUSH2 0xF45 JUMPI SWAP3 PUSH1 0x20 SWAP3 SWAP2 PUSH1 0xFF PUSH1 0x80 SWAP6 PUSH1 0x40 MLOAD SWAP5 DUP6 MSTORE AND DUP5 DUP5 ADD MSTORE PUSH1 0x40 DUP4 ADD MSTORE PUSH1 0x60 DUP3 ADD MSTORE PUSH1 0x0 SWAP3 DUP4 SWAP2 DUP3 DUP1 MSTORE PUSH1 0x1 GAS STATICCALL ISZERO PUSH2 0xF39 JUMPI DUP1 MLOAD PUSH1 0x1 PUSH1 0x1 PUSH1 0xA0 SHL SUB DUP2 AND ISZERO PUSH2 0xF30 JUMPI SWAP2 DUP2 SWAP1 JUMP JUMPDEST POP DUP1 SWAP2 PUSH1 0x1 SWAP2 SWAP1 JUMP JUMPDEST PUSH1 0x40 MLOAD SWAP1 RETURNDATASIZE SWAP1 DUP3 RETURNDATACOPY RETURNDATASIZE SWAP1 REVERT JUMPDEST POP POP POP PUSH1 0x0 SWAP2 PUSH1 0x3 SWAP2 SWAP1 JUMP INVALID LOG2 PUSH5 0x6970667358 0x22 SLT KECCAK256 0x1F 0xBB 0xBE 0x28 0xCE DUP1 0xE7 0xBB PUSH11 0xD950BE95F284CC5F427B62 SSTORE PUSH8 0x45BE4F3BD780F7B9 0xDB PUSH23 0x64736F6C63430008180033000000000000000000000000 "},"methodIdentifiers":{"domainSeparator()":"f698da25","eip712Domain()":"84b0196e","isVerifier(address)":"33105218","nonces(address)":"7ecebe00","owner()":"8da5cb5b","renounceOwnership()":"715018a6","scores(address)":"76dd110f","setVerifier(address,bool)":"ac9b5671","transferOwnership(address)":"f2fde38b","updateScoreWithProof(address,uint8,string,uint256,uint256,bytes)":"b23881e5"}}}}}